{
    "_format": "hh-sol-artifact-1",
    "contractName": "MyToken",
    "sourceName": "contracts/MyNFT.sol",
    "abi": [
        {
            "inputs": [],
            "stateMutability": "nonpayable",
            "type": "constructor"
        },
        {
            "anonymous": false,
            "inputs": [
                {
                    "indexed": true,
                    "internalType": "address",
                    "name": "owner",
                    "type": "address"
                },
                {
                    "indexed": true,
                    "internalType": "address",
                    "name": "approved",
                    "type": "address"
                },
                {
                    "indexed": true,
                    "internalType": "uint256",
                    "name": "tokenId",
                    "type": "uint256"
                }
            ],
            "name": "Approval",
            "type": "event"
        },
        {
            "anonymous": false,
            "inputs": [
                {
                    "indexed": true,
                    "internalType": "address",
                    "name": "owner",
                    "type": "address"
                },
                {
                    "indexed": true,
                    "internalType": "address",
                    "name": "operator",
                    "type": "address"
                },
                {
                    "indexed": false,
                    "internalType": "bool",
                    "name": "approved",
                    "type": "bool"
                }
            ],
            "name": "ApprovalForAll",
            "type": "event"
        },
        {
            "anonymous": false,
            "inputs": [
                {
                    "indexed": true,
                    "internalType": "address",
                    "name": "delegator",
                    "type": "address"
                },
                {
                    "indexed": true,
                    "internalType": "address",
                    "name": "fromDelegate",
                    "type": "address"
                },
                {
                    "indexed": true,
                    "internalType": "address",
                    "name": "toDelegate",
                    "type": "address"
                }
            ],
            "name": "DelegateChanged",
            "type": "event"
        },
        {
            "anonymous": false,
            "inputs": [
                {
                    "indexed": true,
                    "internalType": "address",
                    "name": "delegate",
                    "type": "address"
                },
                {
                    "indexed": false,
                    "internalType": "uint256",
                    "name": "previousBalance",
                    "type": "uint256"
                },
                {
                    "indexed": false,
                    "internalType": "uint256",
                    "name": "newBalance",
                    "type": "uint256"
                }
            ],
            "name": "DelegateVotesChanged",
            "type": "event"
        },
        {
            "anonymous": false,
            "inputs": [
                {
                    "indexed": true,
                    "internalType": "address",
                    "name": "previousOwner",
                    "type": "address"
                },
                {
                    "indexed": true,
                    "internalType": "address",
                    "name": "newOwner",
                    "type": "address"
                }
            ],
            "name": "OwnershipTransferred",
            "type": "event"
        },
        {
            "anonymous": false,
            "inputs": [
                {
                    "indexed": false,
                    "internalType": "address",
                    "name": "account",
                    "type": "address"
                }
            ],
            "name": "Paused",
            "type": "event"
        },
        {
            "anonymous": false,
            "inputs": [
                {
                    "indexed": true,
                    "internalType": "address",
                    "name": "from",
                    "type": "address"
                },
                {
                    "indexed": true,
                    "internalType": "address",
                    "name": "to",
                    "type": "address"
                },
                {
                    "indexed": true,
                    "internalType": "uint256",
                    "name": "tokenId",
                    "type": "uint256"
                }
            ],
            "name": "Transfer",
            "type": "event"
        },
        {
            "anonymous": false,
            "inputs": [
                {
                    "indexed": false,
                    "internalType": "address",
                    "name": "account",
                    "type": "address"
                }
            ],
            "name": "Unpaused",
            "type": "event"
        },
        {
            "inputs": [],
            "name": "DOMAIN_SEPARATOR",
            "outputs": [
                {
                    "internalType": "bytes32",
                    "name": "",
                    "type": "bytes32"
                }
            ],
            "stateMutability": "view",
            "type": "function"
        },
        {
            "inputs": [
                {
                    "internalType": "address",
                    "name": "to",
                    "type": "address"
                },
                {
                    "internalType": "uint256",
                    "name": "tokenId",
                    "type": "uint256"
                }
            ],
            "name": "approve",
            "outputs": [],
            "stateMutability": "nonpayable",
            "type": "function"
        },
        {
            "inputs": [
                {
                    "internalType": "address",
                    "name": "owner",
                    "type": "address"
                }
            ],
            "name": "balanceOf",
            "outputs": [
                {
                    "internalType": "uint256",
                    "name": "",
                    "type": "uint256"
                }
            ],
            "stateMutability": "view",
            "type": "function"
        },
        {
            "inputs": [
                {
                    "internalType": "uint256",
                    "name": "tokenId",
                    "type": "uint256"
                }
            ],
            "name": "burn",
            "outputs": [],
            "stateMutability": "nonpayable",
            "type": "function"
        },
        {
            "inputs": [
                {
                    "internalType": "address",
                    "name": "delegatee",
                    "type": "address"
                }
            ],
            "name": "delegate",
            "outputs": [],
            "stateMutability": "nonpayable",
            "type": "function"
        },
        {
            "inputs": [
                {
                    "internalType": "address",
                    "name": "delegatee",
                    "type": "address"
                },
                {
                    "internalType": "uint256",
                    "name": "nonce",
                    "type": "uint256"
                },
                {
                    "internalType": "uint256",
                    "name": "expiry",
                    "type": "uint256"
                },
                {
                    "internalType": "uint8",
                    "name": "v",
                    "type": "uint8"
                },
                {
                    "internalType": "bytes32",
                    "name": "r",
                    "type": "bytes32"
                },
                {
                    "internalType": "bytes32",
                    "name": "s",
                    "type": "bytes32"
                }
            ],
            "name": "delegateBySig",
            "outputs": [],
            "stateMutability": "nonpayable",
            "type": "function"
        },
        {
            "inputs": [
                {
                    "internalType": "address",
                    "name": "account",
                    "type": "address"
                }
            ],
            "name": "delegates",
            "outputs": [
                {
                    "internalType": "address",
                    "name": "",
                    "type": "address"
                }
            ],
            "stateMutability": "view",
            "type": "function"
        },
        {
            "inputs": [],
            "name": "deposit",
            "outputs": [],
            "stateMutability": "payable",
            "type": "function"
        },
        {
            "inputs": [
                {
                    "internalType": "uint256",
                    "name": "tokenId",
                    "type": "uint256"
                }
            ],
            "name": "getApproved",
            "outputs": [
                {
                    "internalType": "address",
                    "name": "",
                    "type": "address"
                }
            ],
            "stateMutability": "view",
            "type": "function"
        },
        {
            "inputs": [],
            "name": "getBalance",
            "outputs": [
                {
                    "internalType": "uint256",
                    "name": "",
                    "type": "uint256"
                }
            ],
            "stateMutability": "view",
            "type": "function"
        },
        {
            "inputs": [
                {
                    "internalType": "uint256",
                    "name": "blockNumber",
                    "type": "uint256"
                }
            ],
            "name": "getPastTotalSupply",
            "outputs": [
                {
                    "internalType": "uint256",
                    "name": "",
                    "type": "uint256"
                }
            ],
            "stateMutability": "view",
            "type": "function"
        },
        {
            "inputs": [
                {
                    "internalType": "address",
                    "name": "account",
                    "type": "address"
                },
                {
                    "internalType": "uint256",
                    "name": "blockNumber",
                    "type": "uint256"
                }
            ],
            "name": "getPastVotes",
            "outputs": [
                {
                    "internalType": "uint256",
                    "name": "",
                    "type": "uint256"
                }
            ],
            "stateMutability": "view",
            "type": "function"
        },
        {
            "inputs": [
                {
                    "internalType": "address",
                    "name": "account",
                    "type": "address"
                }
            ],
            "name": "getVotes",
            "outputs": [
                {
                    "internalType": "uint256",
                    "name": "",
                    "type": "uint256"
                }
            ],
            "stateMutability": "view",
            "type": "function"
        },
        {
            "inputs": [
                {
                    "internalType": "address",
                    "name": "owner",
                    "type": "address"
                },
                {
                    "internalType": "address",
                    "name": "operator",
                    "type": "address"
                }
            ],
            "name": "isApprovedForAll",
            "outputs": [
                {
                    "internalType": "bool",
                    "name": "",
                    "type": "bool"
                }
            ],
            "stateMutability": "view",
            "type": "function"
        },
        {
            "inputs": [],
            "name": "name",
            "outputs": [
                {
                    "internalType": "string",
                    "name": "",
                    "type": "string"
                }
            ],
            "stateMutability": "view",
            "type": "function"
        },
        {
            "inputs": [
                {
                    "internalType": "address",
                    "name": "owner",
                    "type": "address"
                }
            ],
            "name": "nonces",
            "outputs": [
                {
                    "internalType": "uint256",
                    "name": "",
                    "type": "uint256"
                }
            ],
            "stateMutability": "view",
            "type": "function"
        },
        {
            "inputs": [],
            "name": "owner",
            "outputs": [
                {
                    "internalType": "address",
                    "name": "",
                    "type": "address"
                }
            ],
            "stateMutability": "view",
            "type": "function"
        },
        {
            "inputs": [
                {
                    "internalType": "uint256",
                    "name": "tokenId",
                    "type": "uint256"
                }
            ],
            "name": "ownerOf",
            "outputs": [
                {
                    "internalType": "address",
                    "name": "",
                    "type": "address"
                }
            ],
            "stateMutability": "view",
            "type": "function"
        },
        {
            "inputs": [],
            "name": "pause",
            "outputs": [],
            "stateMutability": "nonpayable",
            "type": "function"
        },
        {
            "inputs": [],
            "name": "paused",
            "outputs": [
                {
                    "internalType": "bool",
                    "name": "",
                    "type": "bool"
                }
            ],
            "stateMutability": "view",
            "type": "function"
        },
        {
            "inputs": [],
            "name": "renounceOwnership",
            "outputs": [],
            "stateMutability": "nonpayable",
            "type": "function"
        },
        {
            "inputs": [
                {
                    "internalType": "address",
                    "name": "to",
                    "type": "address"
                },
                {
                    "internalType": "string",
                    "name": "uri",
                    "type": "string"
                }
            ],
            "name": "safeMint",
            "outputs": [],
            "stateMutability": "nonpayable",
            "type": "function"
        },
        {
            "inputs": [
                {
                    "internalType": "address",
                    "name": "from",
                    "type": "address"
                },
                {
                    "internalType": "address",
                    "name": "to",
                    "type": "address"
                },
                {
                    "internalType": "uint256",
                    "name": "tokenId",
                    "type": "uint256"
                }
            ],
            "name": "safeTransferFrom",
            "outputs": [],
            "stateMutability": "nonpayable",
            "type": "function"
        },
        {
            "inputs": [
                {
                    "internalType": "address",
                    "name": "from",
                    "type": "address"
                },
                {
                    "internalType": "address",
                    "name": "to",
                    "type": "address"
                },
                {
                    "internalType": "uint256",
                    "name": "tokenId",
                    "type": "uint256"
                },
                {
                    "internalType": "bytes",
                    "name": "data",
                    "type": "bytes"
                }
            ],
            "name": "safeTransferFrom",
            "outputs": [],
            "stateMutability": "nonpayable",
            "type": "function"
        },
        {
            "inputs": [
                {
                    "internalType": "address",
                    "name": "operator",
                    "type": "address"
                },
                {
                    "internalType": "bool",
                    "name": "approved",
                    "type": "bool"
                }
            ],
            "name": "setApprovalForAll",
            "outputs": [],
            "stateMutability": "nonpayable",
            "type": "function"
        },
        {
            "inputs": [
                {
                    "internalType": "bytes4",
                    "name": "interfaceId",
                    "type": "bytes4"
                }
            ],
            "name": "supportsInterface",
            "outputs": [
                {
                    "internalType": "bool",
                    "name": "",
                    "type": "bool"
                }
            ],
            "stateMutability": "view",
            "type": "function"
        },
        {
            "inputs": [],
            "name": "symbol",
            "outputs": [
                {
                    "internalType": "string",
                    "name": "",
                    "type": "string"
                }
            ],
            "stateMutability": "view",
            "type": "function"
        },
        {
            "inputs": [
                {
                    "internalType": "uint256",
                    "name": "index",
                    "type": "uint256"
                }
            ],
            "name": "tokenByIndex",
            "outputs": [
                {
                    "internalType": "uint256",
                    "name": "",
                    "type": "uint256"
                }
            ],
            "stateMutability": "view",
            "type": "function"
        },
        {
            "inputs": [
                {
                    "internalType": "address",
                    "name": "owner",
                    "type": "address"
                },
                {
                    "internalType": "uint256",
                    "name": "index",
                    "type": "uint256"
                }
            ],
            "name": "tokenOfOwnerByIndex",
            "outputs": [
                {
                    "internalType": "uint256",
                    "name": "",
                    "type": "uint256"
                }
            ],
            "stateMutability": "view",
            "type": "function"
        },
        {
            "inputs": [
                {
                    "internalType": "uint256",
                    "name": "tokenId",
                    "type": "uint256"
                }
            ],
            "name": "tokenURI",
            "outputs": [
                {
                    "internalType": "string",
                    "name": "",
                    "type": "string"
                }
            ],
            "stateMutability": "view",
            "type": "function"
        },
        {
            "inputs": [],
            "name": "totalSupply",
            "outputs": [
                {
                    "internalType": "uint256",
                    "name": "",
                    "type": "uint256"
                }
            ],
            "stateMutability": "view",
            "type": "function"
        },
        {
            "inputs": [
                {
                    "internalType": "address",
                    "name": "_to",
                    "type": "address"
                },
                {
                    "internalType": "uint256",
                    "name": "_amount",
                    "type": "uint256"
                }
            ],
            "name": "transfer",
            "outputs": [],
            "stateMutability": "nonpayable",
            "type": "function"
        },
        {
            "inputs": [
                {
                    "internalType": "address",
                    "name": "from",
                    "type": "address"
                },
                {
                    "internalType": "address",
                    "name": "to",
                    "type": "address"
                },
                {
                    "internalType": "uint256",
                    "name": "tokenId",
                    "type": "uint256"
                }
            ],
            "name": "transferFrom",
            "outputs": [],
            "stateMutability": "nonpayable",
            "type": "function"
        },
        {
            "inputs": [
                {
                    "internalType": "address",
                    "name": "newOwner",
                    "type": "address"
                }
            ],
            "name": "transferOwnership",
            "outputs": [],
            "stateMutability": "nonpayable",
            "type": "function"
        },
        {
            "inputs": [],
            "name": "unpause",
            "outputs": [],
            "stateMutability": "nonpayable",
            "type": "function"
        },
        {
            "inputs": [
                {
                    "internalType": "uint256",
                    "name": "_amount",
                    "type": "uint256"
                }
            ],
            "name": "withdraw",
            "outputs": [],
            "stateMutability": "nonpayable",
            "type": "function"
        }
    ],
    "bytecode": "0x6101406040523480156200001257600080fd5b506040518060400160405280600781526020017f4d79546f6b656e000000000000000000000000000000000000000000000000008152506040518060400160405280600181526020017f31000000000000000000000000000000000000000000000000000000000000008152506040518060400160405280600781526020017f4d79546f6b656e000000000000000000000000000000000000000000000000008152506040518060400160405280600381526020017f4d544b00000000000000000000000000000000000000000000000000000000008152508160009081620000fc919062000588565b5080600190816200010e919062000588565b5050506000600b60006101000a81548160ff0219169083151502179055506200014c620001406200020460201b60201c565b6200020c60201b60201c565b60008280519060200120905060008280519060200120905060007f8b73c3c69bb8fe3d512ecc4cf759cc79239f7b179b0ffacaa9a75d522b39400f90508260e081815250508161010081815250504660a08181525050620001b5818484620002d260201b60201c565b608081815250503073ffffffffffffffffffffffffffffffffffffffff1660c08173ffffffffffffffffffffffffffffffffffffffff168152505080610120818152505050505050506200073d565b600033905090565b6000600b60019054906101000a900473ffffffffffffffffffffffffffffffffffffffff16905081600b60016101000a81548173ffffffffffffffffffffffffffffffffffffffff021916908373ffffffffffffffffffffffffffffffffffffffff1602179055508173ffffffffffffffffffffffffffffffffffffffff168173ffffffffffffffffffffffffffffffffffffffff167f8be0079c531659141344cd1fd0a4f28419497f9722a3daafe3b4186f6b6457e060405160405180910390a35050565b60008383834630604051602001620002ef959493929190620006e0565b6040516020818303038152906040528051906020012090509392505050565b600081519050919050565b7f4e487b7100000000000000000000000000000000000000000000000000000000600052604160045260246000fd5b7f4e487b7100000000000000000000000000000000000000000000000000000000600052602260045260246000fd5b600060028204905060018216806200039057607f821691505b602082108103620003a657620003a562000348565b5b50919050565b60008190508160005260206000209050919050565b60006020601f8301049050919050565b600082821b905092915050565b600060088302620004107fffffffffffffffffffffffffffffffffffffffffffffffffffffffffffffffff82620003d1565b6200041c8683620003d1565b95508019841693508086168417925050509392505050565b6000819050919050565b6000819050919050565b600062000469620004636200045d8462000434565b6200043e565b62000434565b9050919050565b6000819050919050565b620004858362000448565b6200049d620004948262000470565b848454620003de565b825550505050565b600090565b620004b4620004a5565b620004c18184846200047a565b505050565b5b81811015620004e957620004dd600082620004aa565b600181019050620004c7565b5050565b601f82111562000538576200050281620003ac565b6200050d84620003c1565b810160208510156200051d578190505b620005356200052c85620003c1565b830182620004c6565b50505b505050565b600082821c905092915050565b60006200055d600019846008026200053d565b1980831691505092915050565b60006200057883836200054a565b9150826002028217905092915050565b62000593826200030e565b67ffffffffffffffff811115620005af57620005ae62000319565b5b620005bb825462000377565b620005c8828285620004ed565b600060209050601f831160018114620006005760008415620005eb578287015190505b620005f785826200056a565b86555062000667565b601f1984166200061086620003ac565b60005b828110156200063a5784890151825560018201915060208501945060208101905062000613565b868310156200065a578489015162000656601f8916826200054a565b8355505b6001600288020188555050505b505050505050565b6000819050919050565b62000684816200066f565b82525050565b620006958162000434565b82525050565b600073ffffffffffffffffffffffffffffffffffffffff82169050919050565b6000620006c8826200069b565b9050919050565b620006da81620006bb565b82525050565b600060a082019050620006f7600083018862000679565b62000706602083018762000679565b62000715604083018662000679565b6200072460608301856200068a565b620007336080830184620006cf565b9695505050505050565b60805160a05160c05160e0516101005161012051615a5c6200078d6000396000611af001526000611b3201526000611b1101526000611a4601526000611a9c01526000611ac50152615a5c6000f3fe60806040526004361061020f5760003560e01c80636352211e11610118578063a22cb465116100a0578063c87b56dd1161006f578063c87b56dd146107bf578063d0e30db0146107fc578063d204c45e14610806578063e985e9c51461082f578063f2fde38b1461086c5761020f565b8063a22cb4651461071b578063a9059cbb14610744578063b88d4fde1461076d578063c3cda520146107965761020f565b80638456cb59116100e75780638456cb59146106345780638da5cb5b1461064b5780638e539e8c1461067657806395d89b41146106b35780639ab24eb0146106de5761020f565b80636352211e1461056657806370a08231146105a3578063715018a6146105e05780637ecebe00146105f75761020f565b80633644e5151161019b57806342966c681161016a57806342966c681461046f5780634f6ccce714610498578063587cde1e146104d55780635c19a95c146105125780635c975abb1461053b5761020f565b80633644e515146103c75780633a46b1a8146103f25780633f4ba83a1461042f57806342842e0e146104465761020f565b806312065fe0116101e257806312065fe0146102e257806318160ddd1461030d57806323b872dd146103385780632e1a7d4d146103615780632f745c591461038a5761020f565b806301ffc9a71461021457806306fdde0314610251578063081812fc1461027c578063095ea7b3146102b9575b600080fd5b34801561022057600080fd5b5061023b60048036038101906102369190613cd4565b610895565b6040516102489190613d1c565b60405180910390f35b34801561025d57600080fd5b506102666108a7565b6040516102739190613dc7565b60405180910390f35b34801561028857600080fd5b506102a3600480360381019061029e9190613e1f565b610939565b6040516102b09190613e8d565b60405180910390f35b3480156102c557600080fd5b506102e060048036038101906102db9190613ed4565b61097f565b005b3480156102ee57600080fd5b506102f7610a96565b6040516103049190613f23565b60405180910390f35b34801561031957600080fd5b50610322610add565b60405161032f9190613f23565b60405180910390f35b34801561034457600080fd5b5061035f600480360381019061035a9190613f3e565b610aea565b005b34801561036d57600080fd5b5061038860048036038101906103839190613e1f565b610b4a565b005b34801561039657600080fd5b506103b160048036038101906103ac9190613ed4565b610bea565b6040516103be9190613f23565b60405180910390f35b3480156103d357600080fd5b506103dc610c8f565b6040516103e99190613faa565b60405180910390f35b3480156103fe57600080fd5b5061041960048036038101906104149190613ed4565b610c9e565b6040516104269190613f23565b60405180910390f35b34801561043b57600080fd5b50610444610cf9565b005b34801561045257600080fd5b5061046d60048036038101906104689190613f3e565b610d0b565b005b34801561047b57600080fd5b5061049660048036038101906104919190613e1f565b610d2b565b005b3480156104a457600080fd5b506104bf60048036038101906104ba9190613e1f565b610d87565b6040516104cc9190613f23565b60405180910390f35b3480156104e157600080fd5b506104fc60048036038101906104f79190613fc5565b610df8565b6040516105099190613e8d565b60405180910390f35b34801561051e57600080fd5b5061053960048036038101906105349190613fc5565b610e61565b005b34801561054757600080fd5b50610550610e7b565b60405161055d9190613d1c565b60405180910390f35b34801561057257600080fd5b5061058d60048036038101906105889190613e1f565b610e92565b60405161059a9190613e8d565b60405180910390f35b3480156105af57600080fd5b506105ca60048036038101906105c59190613fc5565b610f43565b6040516105d79190613f23565b60405180910390f35b3480156105ec57600080fd5b506105f5610ffa565b005b34801561060357600080fd5b5061061e60048036038101906106199190613fc5565b61100e565b60405161062b9190613f23565b60405180910390f35b34801561064057600080fd5b5061064961105e565b005b34801561065757600080fd5b50610660611070565b60405161066d9190613e8d565b60405180910390f35b34801561068257600080fd5b5061069d60048036038101906106989190613e1f565b61109a565b6040516106aa9190613f23565b60405180910390f35b3480156106bf57600080fd5b506106c86110f9565b6040516106d59190613dc7565b60405180910390f35b3480156106ea57600080fd5b5061070560048036038101906107009190613fc5565b61118b565b6040516107129190613f23565b60405180910390f35b34801561072757600080fd5b50610742600480360381019061073d919061401e565b6111db565b005b34801561075057600080fd5b5061076b60048036038101906107669190613ed4565b6111f1565b005b34801561077957600080fd5b50610794600480360381019061078f9190614193565b6112a1565b005b3480156107a257600080fd5b506107bd60048036038101906107b8919061427b565b611303565b005b3480156107cb57600080fd5b506107e660048036038101906107e19190613e1f565b611407565b6040516107f39190613dc7565b60405180910390f35b610804611419565b005b34801561081257600080fd5b5061082d600480360381019061082891906143a9565b611471565b005b34801561083b57600080fd5b5061085660048036038101906108519190614405565b6114aa565b6040516108639190613d1c565b60405180910390f35b34801561087857600080fd5b50610893600480360381019061088e9190613fc5565b61153e565b005b60006108a0826115c1565b9050919050565b6060600080546108b690614474565b80601f01602080910402602001604051908101604052809291908181526020018280546108e290614474565b801561092f5780601f106109045761010080835404028352916020019161092f565b820191906000526020600020905b81548152906001019060200180831161091257829003601f168201915b5050505050905090565b60006109448261163b565b6004600083815260200190815260200160002060009054906101000a900473ffffffffffffffffffffffffffffffffffffffff169050919050565b600061098a82610e92565b90508073ffffffffffffffffffffffffffffffffffffffff168373ffffffffffffffffffffffffffffffffffffffff16036109fa576040517f08c379a00000000000000000000000000000000000000000000000000000000081526004016109f190614517565b60405180910390fd5b8073ffffffffffffffffffffffffffffffffffffffff16610a19611686565b73ffffffffffffffffffffffffffffffffffffffff161480610a485750610a4781610a42611686565b6114aa565b5b610a87576040517f08c379a0000000000000000000000000000000000000000000000000000000008152600401610a7e906145a9565b60405180910390fd5b610a91838361168e565b505050565b6000601160003373ffffffffffffffffffffffffffffffffffffffff1673ffffffffffffffffffffffffffffffffffffffff16815260200190815260200160002054905090565b6000600880549050905090565b610afb610af5611686565b82611747565b610b3a576040517f08c379a0000000000000000000000000000000000000000000000000000000008152600401610b319061463b565b60405180910390fd5b610b458383836117dc565b505050565b80601160003373ffffffffffffffffffffffffffffffffffffffff1673ffffffffffffffffffffffffffffffffffffffff1681526020019081526020016000206000828254610b99919061468a565b925050819055503373ffffffffffffffffffffffffffffffffffffffff166108fc829081150290604051600060405180830381858888f19350505050158015610be6573d6000803e3d6000fd5b5050565b6000610bf583610f43565b8210610c36576040517f08c379a0000000000000000000000000000000000000000000000000000000008152600401610c2d90614730565b60405180910390fd5b600660008473ffffffffffffffffffffffffffffffffffffffff1673ffffffffffffffffffffffffffffffffffffffff168152602001908152602001600020600083815260200190815260200160002054905092915050565b6000610c99611a42565b905090565b6000610cf182600d60008673ffffffffffffffffffffffffffffffffffffffff1673ffffffffffffffffffffffffffffffffffffffff168152602001908152602001600020611b5c90919063ffffffff16565b905092915050565b610d01611cb4565b610d09611d32565b565b610d26838383604051806020016040528060008152506112a1565b505050565b610d3c610d36611686565b82611747565b610d7b576040517f08c379a0000000000000000000000000000000000000000000000000000000008152600401610d729061463b565b60405180910390fd5b610d8481611d95565b50565b6000610d91610add565b8210610dd2576040517f08c379a0000000000000000000000000000000000000000000000000000000008152600401610dc9906147c2565b60405180910390fd5b60088281548110610de657610de56147e2565b5b90600052602060002001549050919050565b6000600c60008373ffffffffffffffffffffffffffffffffffffffff1673ffffffffffffffffffffffffffffffffffffffff16815260200190815260200160002060009054906101000a900473ffffffffffffffffffffffffffffffffffffffff169050919050565b6000610e6b611686565b9050610e778183611da1565b5050565b6000600b60009054906101000a900460ff16905090565b6000806002600084815260200190815260200160002060009054906101000a900473ffffffffffffffffffffffffffffffffffffffff169050600073ffffffffffffffffffffffffffffffffffffffff168173ffffffffffffffffffffffffffffffffffffffff1603610f3a576040517f08c379a0000000000000000000000000000000000000000000000000000000008152600401610f319061485d565b60405180910390fd5b80915050919050565b60008073ffffffffffffffffffffffffffffffffffffffff168273ffffffffffffffffffffffffffffffffffffffff1603610fb3576040517f08c379a0000000000000000000000000000000000000000000000000000000008152600401610faa906148ef565b60405180910390fd5b600360008373ffffffffffffffffffffffffffffffffffffffff1673ffffffffffffffffffffffffffffffffffffffff168152602001908152602001600020549050919050565b611002611cb4565b61100c6000611eb5565b565b6000611057600f60008473ffffffffffffffffffffffffffffffffffffffff1673ffffffffffffffffffffffffffffffffffffffff168152602001908152602001600020611f7b565b9050919050565b611066611cb4565b61106e611f89565b565b6000600b60019054906101000a900473ffffffffffffffffffffffffffffffffffffffff16905090565b60004382106110de576040517f08c379a00000000000000000000000000000000000000000000000000000000081526004016110d59061495b565b60405180910390fd5b6110f282600e611b5c90919063ffffffff16565b9050919050565b60606001805461110890614474565b80601f016020809104026020016040519081016040528092919081815260200182805461113490614474565b80156111815780601f1061115657610100808354040283529160200191611181565b820191906000526020600020905b81548152906001019060200180831161116457829003601f168201915b5050505050905090565b60006111d4600d60008473ffffffffffffffffffffffffffffffffffffffff1673ffffffffffffffffffffffffffffffffffffffff168152602001908152602001600020611fec565b9050919050565b6111ed6111e6611686565b8383612087565b5050565b80601160003373ffffffffffffffffffffffffffffffffffffffff1673ffffffffffffffffffffffffffffffffffffffff1681526020019081526020016000206000828254611240919061468a565b9250508190555080601160008473ffffffffffffffffffffffffffffffffffffffff1673ffffffffffffffffffffffffffffffffffffffff1681526020019081526020016000206000828254611296919061497b565b925050819055505050565b6112b26112ac611686565b83611747565b6112f1576040517f08c379a00000000000000000000000000000000000000000000000000000000081526004016112e89061463b565b60405180910390fd5b6112fd848484846121f3565b50505050565b83421115611346576040517f08c379a000000000000000000000000000000000000000000000000000000000815260040161133d906149fb565b60405180910390fd5b60006113a86113a07fe48329057bfd03d55e49b547132e39cffd9c1820ad7b9d4c5307691425d15adf8989896040516020016113859493929190614a1b565b6040516020818303038152906040528051906020012061224f565b858585612269565b90506113b381612294565b86146113f4576040517f08c379a00000000000000000000000000000000000000000000000000000000081526004016113eb90614aac565b60405180910390fd5b6113fe8188611da1565b50505050505050565b6060611412826122f2565b9050919050565b34601160003373ffffffffffffffffffffffffffffffffffffffff1673ffffffffffffffffffffffffffffffffffffffff1681526020019081526020016000206000828254611468919061497b565b92505081905550565b611479611cb4565b60006114856010611f7b565b90506114916010612404565b61149b838261241a565b6114a58183612438565b505050565b6000600560008473ffffffffffffffffffffffffffffffffffffffff1673ffffffffffffffffffffffffffffffffffffffff16815260200190815260200160002060008373ffffffffffffffffffffffffffffffffffffffff1673ffffffffffffffffffffffffffffffffffffffff16815260200190815260200160002060009054906101000a900460ff16905092915050565b611546611cb4565b600073ffffffffffffffffffffffffffffffffffffffff168173ffffffffffffffffffffffffffffffffffffffff16036115b5576040517f08c379a00000000000000000000000000000000000000000000000000000000081526004016115ac90614b3e565b60405180910390fd5b6115be81611eb5565b50565b60007f780e9d63000000000000000000000000000000000000000000000000000000007bffffffffffffffffffffffffffffffffffffffffffffffffffffffff1916827bffffffffffffffffffffffffffffffffffffffffffffffffffffffff191614806116345750611633826124a5565b5b9050919050565b61164481612587565b611683576040517f08c379a000000000000000000000000000000000000000000000000000000000815260040161167a9061485d565b60405180910390fd5b50565b600033905090565b816004600083815260200190815260200160002060006101000a81548173ffffffffffffffffffffffffffffffffffffffff021916908373ffffffffffffffffffffffffffffffffffffffff160217905550808273ffffffffffffffffffffffffffffffffffffffff1661170183610e92565b73ffffffffffffffffffffffffffffffffffffffff167f8c5be1e5ebec7d5bd14f71427d1e84f3dd0314c0f7b2291e5b200ac8c7c3b92560405160405180910390a45050565b60008061175383610e92565b90508073ffffffffffffffffffffffffffffffffffffffff168473ffffffffffffffffffffffffffffffffffffffff161480611795575061179481856114aa565b5b806117d357508373ffffffffffffffffffffffffffffffffffffffff166117bb84610939565b73ffffffffffffffffffffffffffffffffffffffff16145b91505092915050565b8273ffffffffffffffffffffffffffffffffffffffff166117fc82610e92565b73ffffffffffffffffffffffffffffffffffffffff1614611852576040517f08c379a000000000000000000000000000000000000000000000000000000000815260040161184990614bd0565b60405180910390fd5b600073ffffffffffffffffffffffffffffffffffffffff168273ffffffffffffffffffffffffffffffffffffffff16036118c1576040517f08c379a00000000000000000000000000000000000000000000000000000000081526004016118b890614c62565b60405180910390fd5b6118cc8383836125f3565b6118d760008261168e565b6001600360008573ffffffffffffffffffffffffffffffffffffffff1673ffffffffffffffffffffffffffffffffffffffff1681526020019081526020016000206000828254611927919061468a565b925050819055506001600360008473ffffffffffffffffffffffffffffffffffffffff1673ffffffffffffffffffffffffffffffffffffffff168152602001908152602001600020600082825461197e919061497b565b92505081905550816002600083815260200190815260200160002060006101000a81548173ffffffffffffffffffffffffffffffffffffffff021916908373ffffffffffffffffffffffffffffffffffffffff160217905550808273ffffffffffffffffffffffffffffffffffffffff168473ffffffffffffffffffffffffffffffffffffffff167fddf252ad1be2c89b69c2b068fc378daa952ba7f163c4a11628f55a4df523b3ef60405160405180910390a4611a3d83838361260b565b505050565b60007f000000000000000000000000000000000000000000000000000000000000000073ffffffffffffffffffffffffffffffffffffffff163073ffffffffffffffffffffffffffffffffffffffff16148015611abe57507f000000000000000000000000000000000000000000000000000000000000000046145b15611aeb577f00000000000000000000000000000000000000000000000000000000000000009050611b59565b611b567f00000000000000000000000000000000000000000000000000000000000000007f00000000000000000000000000000000000000000000000000000000000000007f000000000000000000000000000000000000000000000000000000000000000061261b565b90505b90565b6000438210611ba0576040517f08c379a0000000000000000000000000000000000000000000000000000000008152600401611b9790614cce565b60405180910390fd5b60008360000180549050905060005b81811015611c24576000611bc38284612655565b905084866000018281548110611bdc57611bdb6147e2565b5b9060005260206000200160000160009054906101000a900463ffffffff1663ffffffff161115611c0e57809250611c1e565b600181611c1b919061497b565b91505b50611baf565b60008214611c895784600001600183611c3d919061468a565b81548110611c4e57611c4d6147e2565b5b9060005260206000200160000160049054906101000a90047bffffffffffffffffffffffffffffffffffffffffffffffffffffffff16611c8c565b60005b7bffffffffffffffffffffffffffffffffffffffffffffffffffffffff169250505092915050565b611cbc611686565b73ffffffffffffffffffffffffffffffffffffffff16611cda611070565b73ffffffffffffffffffffffffffffffffffffffff1614611d30576040517f08c379a0000000000000000000000000000000000000000000000000000000008152600401611d2790614d3a565b60405180910390fd5b565b611d3a61267b565b6000600b60006101000a81548160ff0219169083151502179055507f5db9ee0a495bf2e6ff9c91a7834c1ba4fdd244a5e8aa4e537bd38aeae4b073aa611d7e611686565b604051611d8b9190613e8d565b60405180910390a1565b611d9e816126c4565b50565b6000611dac83610df8565b905081600c60008573ffffffffffffffffffffffffffffffffffffffff1673ffffffffffffffffffffffffffffffffffffffff16815260200190815260200160002060006101000a81548173ffffffffffffffffffffffffffffffffffffffff021916908373ffffffffffffffffffffffffffffffffffffffff1602179055508173ffffffffffffffffffffffffffffffffffffffff168173ffffffffffffffffffffffffffffffffffffffff168473ffffffffffffffffffffffffffffffffffffffff167f3134e8a2e6d97e929a7e54011ea5485d7d196dd5f0ba4d4ef95803e8e3fc257f60405160405180910390a4611eb08183611eab86612717565b612729565b505050565b6000600b60019054906101000a900473ffffffffffffffffffffffffffffffffffffffff16905081600b60016101000a81548173ffffffffffffffffffffffffffffffffffffffff021916908373ffffffffffffffffffffffffffffffffffffffff1602179055508173ffffffffffffffffffffffffffffffffffffffff168173ffffffffffffffffffffffffffffffffffffffff167f8be0079c531659141344cd1fd0a4f28419497f9722a3daafe3b4186f6b6457e060405160405180910390a35050565b600081600001549050919050565b611f91612936565b6001600b60006101000a81548160ff0219169083151502179055507f62e78cea01bee320cd4e420270b5ea74000d11b0c9f74754ebdbfc544b05a258611fd5611686565b604051611fe29190613e8d565b60405180910390a1565b600080826000018054905090506000811461205e5782600001600182612012919061468a565b81548110612023576120226147e2565b5b9060005260206000200160000160049054906101000a90047bffffffffffffffffffffffffffffffffffffffffffffffffffffffff16612061565b60005b7bffffffffffffffffffffffffffffffffffffffffffffffffffffffff16915050919050565b8173ffffffffffffffffffffffffffffffffffffffff168373ffffffffffffffffffffffffffffffffffffffff16036120f5576040517f08c379a00000000000000000000000000000000000000000000000000000000081526004016120ec90614da6565b60405180910390fd5b80600560008573ffffffffffffffffffffffffffffffffffffffff1673ffffffffffffffffffffffffffffffffffffffff16815260200190815260200160002060008473ffffffffffffffffffffffffffffffffffffffff1673ffffffffffffffffffffffffffffffffffffffff16815260200190815260200160002060006101000a81548160ff0219169083151502179055508173ffffffffffffffffffffffffffffffffffffffff168373ffffffffffffffffffffffffffffffffffffffff167f17307eab39ab6107e8899845ad3d59bd9653f200f220920489ca2b5937696c31836040516121e69190613d1c565b60405180910390a3505050565b6121fe8484846117dc565b61220a84848484612980565b612249576040517f08c379a000000000000000000000000000000000000000000000000000000000815260040161224090614e38565b60405180910390fd5b50505050565b600061226261225c611a42565b83612b07565b9050919050565b600080600061227a87878787612b3a565b9150915061228781612c46565b8192505050949350505050565b600080600f60008473ffffffffffffffffffffffffffffffffffffffff1673ffffffffffffffffffffffffffffffffffffffff16815260200190815260200160002090506122e181611f7b565b91506122ec81612404565b50919050565b60606122fd8261163b565b6000600a6000848152602001908152602001600020805461231d90614474565b80601f016020809104026020016040519081016040528092919081815260200182805461234990614474565b80156123965780601f1061236b57610100808354040283529160200191612396565b820191906000526020600020905b81548152906001019060200180831161237957829003601f168201915b5050505050905060006123a7612e12565b905060008151036123bc5781925050506123ff565b6000825111156123f15780826040516020016123d9929190614e94565b604051602081830303815290604052925050506123ff565b6123fa84612e4f565b925050505b919050565b6001816000016000828254019250508190555050565b612434828260405180602001604052806000815250612eb7565b5050565b61244182612587565b612480576040517f08c379a000000000000000000000000000000000000000000000000000000000815260040161247790614f2a565b60405180910390fd5b80600a600084815260200190815260200160002090816124a091906150f6565b505050565b60007f80ac58cd000000000000000000000000000000000000000000000000000000007bffffffffffffffffffffffffffffffffffffffffffffffffffffffff1916827bffffffffffffffffffffffffffffffffffffffffffffffffffffffff1916148061257057507f5b5e139f000000000000000000000000000000000000000000000000000000007bffffffffffffffffffffffffffffffffffffffffffffffffffffffff1916827bffffffffffffffffffffffffffffffffffffffffffffffffffffffff1916145b80612580575061257f82612f12565b5b9050919050565b60008073ffffffffffffffffffffffffffffffffffffffff166002600084815260200190815260200160002060009054906101000a900473ffffffffffffffffffffffffffffffffffffffff1673ffffffffffffffffffffffffffffffffffffffff1614159050919050565b6125fb612936565b612606838383612f7c565b505050565b61261683838361308e565b505050565b600083838346306040516020016126369594939291906151c8565b6040516020818303038152906040528051906020012090509392505050565b60006002828418612666919061524a565b828416612673919061497b565b905092915050565b612683610e7b565b6126c2576040517f08c379a00000000000000000000000000000000000000000000000000000000081526004016126b9906152c7565b60405180910390fd5b565b6126cd816130aa565b6000600a600083815260200190815260200160002080546126ed90614474565b90501461271457600a600082815260200190815260200160002060006127139190613c0b565b5b50565b600061272282610f43565b9050919050565b8173ffffffffffffffffffffffffffffffffffffffff168373ffffffffffffffffffffffffffffffffffffffff16141580156127655750600081115b1561293157600073ffffffffffffffffffffffffffffffffffffffff168373ffffffffffffffffffffffffffffffffffffffff161461284d576000806127f66131c784600d60008973ffffffffffffffffffffffffffffffffffffffff1673ffffffffffffffffffffffffffffffffffffffff1681526020019081526020016000206131dd9092919063ffffffff16565b915091508473ffffffffffffffffffffffffffffffffffffffff167fdec2bacdd2f05b59de34da9b523dff8be42e5e38e818c82fdb0bae774387a72483836040516128429291906152e7565b60405180910390a250505b600073ffffffffffffffffffffffffffffffffffffffff168273ffffffffffffffffffffffffffffffffffffffff1614612930576000806128d961320b84600d60008873ffffffffffffffffffffffffffffffffffffffff1673ffffffffffffffffffffffffffffffffffffffff1681526020019081526020016000206131dd9092919063ffffffff16565b915091508373ffffffffffffffffffffffffffffffffffffffff167fdec2bacdd2f05b59de34da9b523dff8be42e5e38e818c82fdb0bae774387a72483836040516129259291906152e7565b60405180910390a250505b5b505050565b61293e610e7b565b1561297e576040517f08c379a00000000000000000000000000000000000000000000000000000000081526004016129759061535c565b60405180910390fd5b565b60006129a18473ffffffffffffffffffffffffffffffffffffffff16613221565b15612afa578373ffffffffffffffffffffffffffffffffffffffff1663150b7a026129ca611686565b8786866040518563ffffffff1660e01b81526004016129ec94939291906153d1565b6020604051808303816000875af1925050508015612a2857506040513d601f19601f82011682018060405250810190612a259190615432565b60015b612aaa573d8060008114612a58576040519150601f19603f3d011682016040523d82523d6000602084013e612a5d565b606091505b506000815103612aa2576040517f08c379a0000000000000000000000000000000000000000000000000000000008152600401612a9990614e38565b60405180910390fd5b805181602001fd5b63150b7a0260e01b7bffffffffffffffffffffffffffffffffffffffffffffffffffffffff1916817bffffffffffffffffffffffffffffffffffffffffffffffffffffffff191614915050612aff565b600190505b949350505050565b60008282604051602001612b1c9291906154cc565b60405160208183030381529060405280519060200120905092915050565b6000807f7fffffffffffffffffffffffffffffff5d576e7357a4501ddfe92f46681b20a08360001c1115612b75576000600391509150612c3d565b601b8560ff1614158015612b8d5750601c8560ff1614155b15612b9f576000600491509150612c3d565b600060018787878760405160008152602001604052604051612bc49493929190615512565b6020604051602081039080840390855afa158015612be6573d6000803e3d6000fd5b505050602060405103519050600073ffffffffffffffffffffffffffffffffffffffff168173ffffffffffffffffffffffffffffffffffffffff1603612c3457600060019250925050612c3d565b80600092509250505b94509492505050565b60006004811115612c5a57612c59615557565b5b816004811115612c6d57612c6c615557565b5b0315612e0f5760016004811115612c8757612c86615557565b5b816004811115612c9a57612c99615557565b5b03612cda576040517f08c379a0000000000000000000000000000000000000000000000000000000008152600401612cd1906155d2565b60405180910390fd5b60026004811115612cee57612ced615557565b5b816004811115612d0157612d00615557565b5b03612d41576040517f08c379a0000000000000000000000000000000000000000000000000000000008152600401612d389061563e565b60405180910390fd5b60036004811115612d5557612d54615557565b5b816004811115612d6857612d67615557565b5b03612da8576040517f08c379a0000000000000000000000000000000000000000000000000000000008152600401612d9f906156d0565b60405180910390fd5b600480811115612dbb57612dba615557565b5b816004811115612dce57612dcd615557565b5b03612e0e576040517f08c379a0000000000000000000000000000000000000000000000000000000008152600401612e0590615762565b60405180910390fd5b5b50565b60606040518060400160405280601581526020017f68747470733a2f2f697066732e696f2f697066732f0000000000000000000000815250905090565b6060612e5a8261163b565b6000612e64612e12565b90506000815111612e845760405180602001604052806000815250612eaf565b80612e8e84613244565b604051602001612e9f929190614e94565b6040516020818303038152906040525b915050919050565b612ec183836133a4565b612ece6000848484612980565b612f0d576040517f08c379a0000000000000000000000000000000000000000000000000000000008152600401612f0490614e38565b60405180910390fd5b505050565b60007f01ffc9a7000000000000000000000000000000000000000000000000000000007bffffffffffffffffffffffffffffffffffffffffffffffffffffffff1916827bffffffffffffffffffffffffffffffffffffffffffffffffffffffff1916149050919050565b612f8783838361357d565b600073ffffffffffffffffffffffffffffffffffffffff168373ffffffffffffffffffffffffffffffffffffffff1603612fc957612fc481613582565b613008565b8173ffffffffffffffffffffffffffffffffffffffff168373ffffffffffffffffffffffffffffffffffffffff16146130075761300683826135cb565b5b5b600073ffffffffffffffffffffffffffffffffffffffff168273ffffffffffffffffffffffffffffffffffffffff160361304a5761304581613738565b613089565b8273ffffffffffffffffffffffffffffffffffffffff168273ffffffffffffffffffffffffffffffffffffffff1614613088576130878282613809565b5b5b505050565b61309a83836001613888565b6130a5838383613946565b505050565b60006130b582610e92565b90506130c3816000846125f3565b6130ce60008361168e565b6001600360008373ffffffffffffffffffffffffffffffffffffffff1673ffffffffffffffffffffffffffffffffffffffff168152602001908152602001600020600082825461311e919061468a565b925050819055506002600083815260200190815260200160002060006101000a81549073ffffffffffffffffffffffffffffffffffffffff021916905581600073ffffffffffffffffffffffffffffffffffffffff168273ffffffffffffffffffffffffffffffffffffffff167fddf252ad1be2c89b69c2b068fc378daa952ba7f163c4a11628f55a4df523b3ef60405160405180910390a46131c38160008461260b565b5050565b600081836131d5919061468a565b905092915050565b6000806131ff856131fa6131f088611fec565b868863ffffffff16565b61394b565b91509150935093915050565b60008183613219919061497b565b905092915050565b6000808273ffffffffffffffffffffffffffffffffffffffff163b119050919050565b60606000820361328b576040518060400160405280600181526020017f3000000000000000000000000000000000000000000000000000000000000000815250905061339f565b600082905060005b600082146132bd5780806132a690615782565b915050600a826132b6919061524a565b9150613293565b60008167ffffffffffffffff8111156132d9576132d8614068565b5b6040519080825280601f01601f19166020018201604052801561330b5781602001600182028036833780820191505090505b5090505b6000851461339857600182613324919061468a565b9150600a8561333391906157ca565b603061333f919061497b565b60f81b818381518110613355576133546147e2565b5b60200101907effffffffffffffffffffffffffffffffffffffffffffffffffffffffffffff1916908160001a905350600a85613391919061524a565b945061330f565b8093505050505b919050565b600073ffffffffffffffffffffffffffffffffffffffff168273ffffffffffffffffffffffffffffffffffffffff1603613413576040517f08c379a000000000000000000000000000000000000000000000000000000000815260040161340a90615847565b60405180910390fd5b61341c81612587565b1561345c576040517f08c379a0000000000000000000000000000000000000000000000000000000008152600401613453906158b3565b60405180910390fd5b613468600083836125f3565b6001600360008473ffffffffffffffffffffffffffffffffffffffff1673ffffffffffffffffffffffffffffffffffffffff16815260200190815260200160002060008282546134b8919061497b565b92505081905550816002600083815260200190815260200160002060006101000a81548173ffffffffffffffffffffffffffffffffffffffff021916908373ffffffffffffffffffffffffffffffffffffffff160217905550808273ffffffffffffffffffffffffffffffffffffffff16600073ffffffffffffffffffffffffffffffffffffffff167fddf252ad1be2c89b69c2b068fc378daa952ba7f163c4a11628f55a4df523b3ef60405160405180910390a46135796000838361260b565b5050565b505050565b6008805490506009600083815260200190815260200160002081905550600881908060018154018082558091505060019003906000526020600020016000909190919091505550565b600060016135d884610f43565b6135e2919061468a565b90506000600760008481526020019081526020016000205490508181146136c7576000600660008673ffffffffffffffffffffffffffffffffffffffff1673ffffffffffffffffffffffffffffffffffffffff168152602001908152602001600020600084815260200190815260200160002054905080600660008773ffffffffffffffffffffffffffffffffffffffff1673ffffffffffffffffffffffffffffffffffffffff168152602001908152602001600020600084815260200190815260200160002081905550816007600083815260200190815260200160002081905550505b6007600084815260200190815260200160002060009055600660008573ffffffffffffffffffffffffffffffffffffffff1673ffffffffffffffffffffffffffffffffffffffff16815260200190815260200160002060008381526020019081526020016000206000905550505050565b6000600160088054905061374c919061468a565b905060006009600084815260200190815260200160002054905060006008838154811061377c5761377b6147e2565b5b90600052602060002001549050806008838154811061379e5761379d6147e2565b5b9060005260206000200181905550816009600083815260200190815260200160002081905550600960008581526020019081526020016000206000905560088054806137ed576137ec6158d3565b5b6001900381819060005260206000200160009055905550505050565b600061381483610f43565b905081600660008573ffffffffffffffffffffffffffffffffffffffff1673ffffffffffffffffffffffffffffffffffffffff168152602001908152602001600020600083815260200190815260200160002081905550806007600084815260200190815260200160002081905550505050565b600073ffffffffffffffffffffffffffffffffffffffff168373ffffffffffffffffffffffffffffffffffffffff16036138d7576138d461320b82600e6131dd9092919063ffffffff16565b50505b600073ffffffffffffffffffffffffffffffffffffffff168273ffffffffffffffffffffffffffffffffffffffff1603613926576139236131c782600e6131dd9092919063ffffffff16565b50505b61394161393284610df8565b61393b84610df8565b83612729565b505050565b505050565b600080600084600001805490509050600061396586611fec565b90506000821180156139bb57504386600001600184613984919061468a565b81548110613995576139946147e2565b5b9060005260206000200160000160009054906101000a900463ffffffff1663ffffffff16145b15613a4b576139c985613b4d565b866000016001846139da919061468a565b815481106139eb576139ea6147e2565b5b9060005260206000200160000160046101000a8154817bffffffffffffffffffffffffffffffffffffffffffffffffffffffff02191690837bffffffffffffffffffffffffffffffffffffffffffffffffffffffff160217905550613b3e565b856000016040518060400160405280613a6343613bb8565b63ffffffff168152602001613a7788613b4d565b7bffffffffffffffffffffffffffffffffffffffffffffffffffffffff168152509080600181540180825580915050600190039060005260206000200160009091909190915060008201518160000160006101000a81548163ffffffff021916908363ffffffff16021790555060208201518160000160046101000a8154817bffffffffffffffffffffffffffffffffffffffffffffffffffffffff02191690837bffffffffffffffffffffffffffffffffffffffffffffffffffffffff16021790555050505b80859350935050509250929050565b60007bffffffffffffffffffffffffffffffffffffffffffffffffffffffff8016821115613bb0576040517f08c379a0000000000000000000000000000000000000000000000000000000008152600401613ba790615974565b60405180910390fd5b819050919050565b600063ffffffff8016821115613c03576040517f08c379a0000000000000000000000000000000000000000000000000000000008152600401613bfa90615a06565b60405180910390fd5b819050919050565b508054613c1790614474565b6000825580601f10613c295750613c48565b601f016020900490600052602060002090810190613c479190613c4b565b5b50565b5b80821115613c64576000816000905550600101613c4c565b5090565b6000604051905090565b600080fd5b600080fd5b60007fffffffff0000000000000000000000000000000000000000000000000000000082169050919050565b613cb181613c7c565b8114613cbc57600080fd5b50565b600081359050613cce81613ca8565b92915050565b600060208284031215613cea57613ce9613c72565b5b6000613cf884828501613cbf565b91505092915050565b60008115159050919050565b613d1681613d01565b82525050565b6000602082019050613d316000830184613d0d565b92915050565b600081519050919050565b600082825260208201905092915050565b60005b83811015613d71578082015181840152602081019050613d56565b60008484015250505050565b6000601f19601f8301169050919050565b6000613d9982613d37565b613da38185613d42565b9350613db3818560208601613d53565b613dbc81613d7d565b840191505092915050565b60006020820190508181036000830152613de18184613d8e565b905092915050565b6000819050919050565b613dfc81613de9565b8114613e0757600080fd5b50565b600081359050613e1981613df3565b92915050565b600060208284031215613e3557613e34613c72565b5b6000613e4384828501613e0a565b91505092915050565b600073ffffffffffffffffffffffffffffffffffffffff82169050919050565b6000613e7782613e4c565b9050919050565b613e8781613e6c565b82525050565b6000602082019050613ea26000830184613e7e565b92915050565b613eb181613e6c565b8114613ebc57600080fd5b50565b600081359050613ece81613ea8565b92915050565b60008060408385031215613eeb57613eea613c72565b5b6000613ef985828601613ebf565b9250506020613f0a85828601613e0a565b9150509250929050565b613f1d81613de9565b82525050565b6000602082019050613f386000830184613f14565b92915050565b600080600060608486031215613f5757613f56613c72565b5b6000613f6586828701613ebf565b9350506020613f7686828701613ebf565b9250506040613f8786828701613e0a565b9150509250925092565b6000819050919050565b613fa481613f91565b82525050565b6000602082019050613fbf6000830184613f9b565b92915050565b600060208284031215613fdb57613fda613c72565b5b6000613fe984828501613ebf565b91505092915050565b613ffb81613d01565b811461400657600080fd5b50565b60008135905061401881613ff2565b92915050565b6000806040838503121561403557614034613c72565b5b600061404385828601613ebf565b925050602061405485828601614009565b9150509250929050565b600080fd5b600080fd5b7f4e487b7100000000000000000000000000000000000000000000000000000000600052604160045260246000fd5b6140a082613d7d565b810181811067ffffffffffffffff821117156140bf576140be614068565b5b80604052505050565b60006140d2613c68565b90506140de8282614097565b919050565b600067ffffffffffffffff8211156140fe576140fd614068565b5b61410782613d7d565b9050602081019050919050565b82818337600083830152505050565b6000614136614131846140e3565b6140c8565b90508281526020810184848401111561415257614151614063565b5b61415d848285614114565b509392505050565b600082601f83011261417a5761417961405e565b5b813561418a848260208601614123565b91505092915050565b600080600080608085870312156141ad576141ac613c72565b5b60006141bb87828801613ebf565b94505060206141cc87828801613ebf565b93505060406141dd87828801613e0a565b925050606085013567ffffffffffffffff8111156141fe576141fd613c77565b5b61420a87828801614165565b91505092959194509250565b600060ff82169050919050565b61422c81614216565b811461423757600080fd5b50565b60008135905061424981614223565b92915050565b61425881613f91565b811461426357600080fd5b50565b6000813590506142758161424f565b92915050565b60008060008060008060c0878903121561429857614297613c72565b5b60006142a689828a01613ebf565b96505060206142b789828a01613e0a565b95505060406142c889828a01613e0a565b94505060606142d989828a0161423a565b93505060806142ea89828a01614266565b92505060a06142fb89828a01614266565b9150509295509295509295565b600067ffffffffffffffff82111561432357614322614068565b5b61432c82613d7d565b9050602081019050919050565b600061434c61434784614308565b6140c8565b90508281526020810184848401111561436857614367614063565b5b614373848285614114565b509392505050565b600082601f8301126143905761438f61405e565b5b81356143a0848260208601614339565b91505092915050565b600080604083850312156143c0576143bf613c72565b5b60006143ce85828601613ebf565b925050602083013567ffffffffffffffff8111156143ef576143ee613c77565b5b6143fb8582860161437b565b9150509250929050565b6000806040838503121561441c5761441b613c72565b5b600061442a85828601613ebf565b925050602061443b85828601613ebf565b9150509250929050565b7f4e487b7100000000000000000000000000000000000000000000000000000000600052602260045260246000fd5b6000600282049050600182168061448c57607f821691505b60208210810361449f5761449e614445565b5b50919050565b7f4552433732313a20617070726f76616c20746f2063757272656e74206f776e6560008201527f7200000000000000000000000000000000000000000000000000000000000000602082015250565b6000614501602183613d42565b915061450c826144a5565b604082019050919050565b60006020820190508181036000830152614530816144f4565b9050919050565b7f4552433732313a20617070726f76652063616c6c6572206973206e6f7420746f60008201527f6b656e206f776e6572206e6f7220617070726f76656420666f7220616c6c0000602082015250565b6000614593603e83613d42565b915061459e82614537565b604082019050919050565b600060208201905081810360008301526145c281614586565b9050919050565b7f4552433732313a2063616c6c6572206973206e6f7420746f6b656e206f776e6560008201527f72206e6f7220617070726f766564000000000000000000000000000000000000602082015250565b6000614625602e83613d42565b9150614630826145c9565b604082019050919050565b6000602082019050818103600083015261465481614618565b9050919050565b7f4e487b7100000000000000000000000000000000000000000000000000000000600052601160045260246000fd5b600061469582613de9565b91506146a083613de9565b92508282039050818111156146b8576146b761465b565b5b92915050565b7f455243373231456e756d657261626c653a206f776e657220696e646578206f7560008201527f74206f6620626f756e6473000000000000000000000000000000000000000000602082015250565b600061471a602b83613d42565b9150614725826146be565b604082019050919050565b600060208201905081810360008301526147498161470d565b9050919050565b7f455243373231456e756d657261626c653a20676c6f62616c20696e646578206f60008201527f7574206f6620626f756e64730000000000000000000000000000000000000000602082015250565b60006147ac602c83613d42565b91506147b782614750565b604082019050919050565b600060208201905081810360008301526147db8161479f565b9050919050565b7f4e487b7100000000000000000000000000000000000000000000000000000000600052603260045260246000fd5b7f4552433732313a20696e76616c696420746f6b656e2049440000000000000000600082015250565b6000614847601883613d42565b915061485282614811565b602082019050919050565b600060208201905081810360008301526148768161483a565b9050919050565b7f4552433732313a2061646472657373207a65726f206973206e6f74206120766160008201527f6c6964206f776e65720000000000000000000000000000000000000000000000602082015250565b60006148d9602983613d42565b91506148e48261487d565b604082019050919050565b60006020820190508181036000830152614908816148cc565b9050919050565b7f566f7465733a20626c6f636b206e6f7420796574206d696e6564000000000000600082015250565b6000614945601a83613d42565b91506149508261490f565b602082019050919050565b6000602082019050818103600083015261497481614938565b9050919050565b600061498682613de9565b915061499183613de9565b92508282019050808211156149a9576149a861465b565b5b92915050565b7f566f7465733a207369676e617475726520657870697265640000000000000000600082015250565b60006149e5601883613d42565b91506149f0826149af565b602082019050919050565b60006020820190508181036000830152614a14816149d8565b9050919050565b6000608082019050614a306000830187613f9b565b614a3d6020830186613e7e565b614a4a6040830185613f14565b614a576060830184613f14565b95945050505050565b7f566f7465733a20696e76616c6964206e6f6e6365000000000000000000000000600082015250565b6000614a96601483613d42565b9150614aa182614a60565b602082019050919050565b60006020820190508181036000830152614ac581614a89565b9050919050565b7f4f776e61626c653a206e6577206f776e657220697320746865207a65726f206160008201527f6464726573730000000000000000000000000000000000000000000000000000602082015250565b6000614b28602683613d42565b9150614b3382614acc565b604082019050919050565b60006020820190508181036000830152614b5781614b1b565b9050919050565b7f4552433732313a207472616e736665722066726f6d20696e636f72726563742060008201527f6f776e6572000000000000000000000000000000000000000000000000000000602082015250565b6000614bba602583613d42565b9150614bc582614b5e565b604082019050919050565b60006020820190508181036000830152614be981614bad565b9050919050565b7f4552433732313a207472616e7366657220746f20746865207a65726f2061646460008201527f7265737300000000000000000000000000000000000000000000000000000000602082015250565b6000614c4c602483613d42565b9150614c5782614bf0565b604082019050919050565b60006020820190508181036000830152614c7b81614c3f565b9050919050565b7f436865636b706f696e74733a20626c6f636b206e6f7420796574206d696e6564600082015250565b6000614cb8602083613d42565b9150614cc382614c82565b602082019050919050565b60006020820190508181036000830152614ce781614cab565b9050919050565b7f4f776e61626c653a2063616c6c6572206973206e6f7420746865206f776e6572600082015250565b6000614d24602083613d42565b9150614d2f82614cee565b602082019050919050565b60006020820190508181036000830152614d5381614d17565b9050919050565b7f4552433732313a20617070726f766520746f2063616c6c657200000000000000600082015250565b6000614d90601983613d42565b9150614d9b82614d5a565b602082019050919050565b60006020820190508181036000830152614dbf81614d83565b9050919050565b7f4552433732313a207472616e7366657220746f206e6f6e20455243373231526560008201527f63656976657220696d706c656d656e7465720000000000000000000000000000602082015250565b6000614e22603283613d42565b9150614e2d82614dc6565b604082019050919050565b60006020820190508181036000830152614e5181614e15565b9050919050565b600081905092915050565b6000614e6e82613d37565b614e788185614e58565b9350614e88818560208601613d53565b80840191505092915050565b6000614ea08285614e63565b9150614eac8284614e63565b91508190509392505050565b7f45524337323155524953746f726167653a2055524920736574206f66206e6f6e60008201527f6578697374656e7420746f6b656e000000000000000000000000000000000000602082015250565b6000614f14602e83613d42565b9150614f1f82614eb8565b604082019050919050565b60006020820190508181036000830152614f4381614f07565b9050919050565b60008190508160005260206000209050919050565b60006020601f8301049050919050565b600082821b905092915050565b600060088302614fac7fffffffffffffffffffffffffffffffffffffffffffffffffffffffffffffffff82614f6f565b614fb68683614f6f565b95508019841693508086168417925050509392505050565b6000819050919050565b6000614ff3614fee614fe984613de9565b614fce565b613de9565b9050919050565b6000819050919050565b61500d83614fd8565b61502161501982614ffa565b848454614f7c565b825550505050565b600090565b615036615029565b615041818484615004565b505050565b5b818110156150655761505a60008261502e565b600181019050615047565b5050565b601f8211156150aa5761507b81614f4a565b61508484614f5f565b81016020851015615093578190505b6150a761509f85614f5f565b830182615046565b50505b505050565b600082821c905092915050565b60006150cd600019846008026150af565b1980831691505092915050565b60006150e683836150bc565b9150826002028217905092915050565b6150ff82613d37565b67ffffffffffffffff81111561511857615117614068565b5b6151228254614474565b61512d828285615069565b600060209050601f831160018114615160576000841561514e578287015190505b61515885826150da565b8655506151c0565b601f19841661516e86614f4a565b60005b8281101561519657848901518255600182019150602085019450602081019050615171565b868310156151b357848901516151af601f8916826150bc565b8355505b6001600288020188555050505b505050505050565b600060a0820190506151dd6000830188613f9b565b6151ea6020830187613f9b565b6151f76040830186613f9b565b6152046060830185613f14565b6152116080830184613e7e565b9695505050505050565b7f4e487b7100000000000000000000000000000000000000000000000000000000600052601260045260246000fd5b600061525582613de9565b915061526083613de9565b9250826152705761526f61521b565b5b828204905092915050565b7f5061757361626c653a206e6f7420706175736564000000000000000000000000600082015250565b60006152b1601483613d42565b91506152bc8261527b565b602082019050919050565b600060208201905081810360008301526152e0816152a4565b9050919050565b60006040820190506152fc6000830185613f14565b6153096020830184613f14565b9392505050565b7f5061757361626c653a2070617573656400000000000000000000000000000000600082015250565b6000615346601083613d42565b915061535182615310565b602082019050919050565b6000602082019050818103600083015261537581615339565b9050919050565b600081519050919050565b600082825260208201905092915050565b60006153a38261537c565b6153ad8185615387565b93506153bd818560208601613d53565b6153c681613d7d565b840191505092915050565b60006080820190506153e66000830187613e7e565b6153f36020830186613e7e565b6154006040830185613f14565b81810360608301526154128184615398565b905095945050505050565b60008151905061542c81613ca8565b92915050565b60006020828403121561544857615447613c72565b5b60006154568482850161541d565b91505092915050565b7f1901000000000000000000000000000000000000000000000000000000000000600082015250565b6000615495600283614e58565b91506154a08261545f565b600282019050919050565b6000819050919050565b6154c66154c182613f91565b6154ab565b82525050565b60006154d782615488565b91506154e382856154b5565b6020820191506154f382846154b5565b6020820191508190509392505050565b61550c81614216565b82525050565b60006080820190506155276000830187613f9b565b6155346020830186615503565b6155416040830185613f9b565b61554e6060830184613f9b565b95945050505050565b7f4e487b7100000000000000000000000000000000000000000000000000000000600052602160045260246000fd5b7f45434453413a20696e76616c6964207369676e61747572650000000000000000600082015250565b60006155bc601883613d42565b91506155c782615586565b602082019050919050565b600060208201905081810360008301526155eb816155af565b9050919050565b7f45434453413a20696e76616c6964207369676e6174757265206c656e67746800600082015250565b6000615628601f83613d42565b9150615633826155f2565b602082019050919050565b600060208201905081810360008301526156578161561b565b9050919050565b7f45434453413a20696e76616c6964207369676e6174757265202773272076616c60008201527f7565000000000000000000000000000000000000000000000000000000000000602082015250565b60006156ba602283613d42565b91506156c58261565e565b604082019050919050565b600060208201905081810360008301526156e9816156ad565b9050919050565b7f45434453413a20696e76616c6964207369676e6174757265202776272076616c60008201527f7565000000000000000000000000000000000000000000000000000000000000602082015250565b600061574c602283613d42565b9150615757826156f0565b604082019050919050565b6000602082019050818103600083015261577b8161573f565b9050919050565b600061578d82613de9565b91507fffffffffffffffffffffffffffffffffffffffffffffffffffffffffffffffff82036157bf576157be61465b565b5b600182019050919050565b60006157d582613de9565b91506157e083613de9565b9250826157f0576157ef61521b565b5b828206905092915050565b7f4552433732313a206d696e7420746f20746865207a65726f2061646472657373600082015250565b6000615831602083613d42565b915061583c826157fb565b602082019050919050565b6000602082019050818103600083015261586081615824565b9050919050565b7f4552433732313a20746f6b656e20616c7265616479206d696e74656400000000600082015250565b600061589d601c83613d42565b91506158a882615867565b602082019050919050565b600060208201905081810360008301526158cc81615890565b9050919050565b7f4e487b7100000000000000000000000000000000000000000000000000000000600052603160045260246000fd5b7f53616665436173743a2076616c756520646f65736e27742066697420696e203260008201527f3234206269747300000000000000000000000000000000000000000000000000602082015250565b600061595e602783613d42565b915061596982615902565b604082019050919050565b6000602082019050818103600083015261598d81615951565b9050919050565b7f53616665436173743a2076616c756520646f65736e27742066697420696e203360008201527f3220626974730000000000000000000000000000000000000000000000000000602082015250565b60006159f0602683613d42565b91506159fb82615994565b604082019050919050565b60006020820190508181036000830152615a1f816159e3565b905091905056fea264697066735822122071de83f541dee9a3b944edaf288a44a59714fc8fd1f19aa942d47eb2a90f480564736f6c63430008110033",
    "linkReferences": {},
    "deployedLinkReferences": {}
}