{
  "_format": "hh-sol-artifact-1",
  "contractName": "MyToken",
  "sourceName": "contracts/MyNFT.sol",
  "abi": [
    {
      "inputs": [],
      "stateMutability": "nonpayable",
      "type": "constructor"
    },
    {
      "anonymous": false,
      "inputs": [
        {
          "indexed": true,
          "internalType": "address",
          "name": "owner",
          "type": "address"
        },
        {
          "indexed": true,
          "internalType": "address",
          "name": "approved",
          "type": "address"
        },
        {
          "indexed": true,
          "internalType": "uint256",
          "name": "tokenId",
          "type": "uint256"
        }
      ],
      "name": "Approval",
      "type": "event"
    },
    {
      "anonymous": false,
      "inputs": [
        {
          "indexed": true,
          "internalType": "address",
          "name": "owner",
          "type": "address"
        },
        {
          "indexed": true,
          "internalType": "address",
          "name": "operator",
          "type": "address"
        },
        {
          "indexed": false,
          "internalType": "bool",
          "name": "approved",
          "type": "bool"
        }
      ],
      "name": "ApprovalForAll",
      "type": "event"
    },
    {
      "anonymous": false,
      "inputs": [
        {
          "indexed": true,
          "internalType": "address",
          "name": "delegator",
          "type": "address"
        },
        {
          "indexed": true,
          "internalType": "address",
          "name": "fromDelegate",
          "type": "address"
        },
        {
          "indexed": true,
          "internalType": "address",
          "name": "toDelegate",
          "type": "address"
        }
      ],
      "name": "DelegateChanged",
      "type": "event"
    },
    {
      "anonymous": false,
      "inputs": [
        {
          "indexed": true,
          "internalType": "address",
          "name": "delegate",
          "type": "address"
        },
        {
          "indexed": false,
          "internalType": "uint256",
          "name": "previousBalance",
          "type": "uint256"
        },
        {
          "indexed": false,
          "internalType": "uint256",
          "name": "newBalance",
          "type": "uint256"
        }
      ],
      "name": "DelegateVotesChanged",
      "type": "event"
    },
    {
      "anonymous": false,
      "inputs": [
        {
          "indexed": true,
          "internalType": "address",
          "name": "previousOwner",
          "type": "address"
        },
        {
          "indexed": true,
          "internalType": "address",
          "name": "newOwner",
          "type": "address"
        }
      ],
      "name": "OwnershipTransferred",
      "type": "event"
    },
    {
      "anonymous": false,
      "inputs": [
        {
          "indexed": false,
          "internalType": "address",
          "name": "account",
          "type": "address"
        }
      ],
      "name": "Paused",
      "type": "event"
    },
    {
      "anonymous": false,
      "inputs": [
        {
          "indexed": true,
          "internalType": "address",
          "name": "from",
          "type": "address"
        },
        {
          "indexed": true,
          "internalType": "address",
          "name": "to",
          "type": "address"
        },
        {
          "indexed": true,
          "internalType": "uint256",
          "name": "tokenId",
          "type": "uint256"
        }
      ],
      "name": "Transfer",
      "type": "event"
    },
    {
      "anonymous": false,
      "inputs": [
        {
          "indexed": false,
          "internalType": "address",
          "name": "account",
          "type": "address"
        }
      ],
      "name": "Unpaused",
      "type": "event"
    },
    {
      "inputs": [],
      "name": "DOMAIN_SEPARATOR",
      "outputs": [
        {
          "internalType": "bytes32",
          "name": "",
          "type": "bytes32"
        }
      ],
      "stateMutability": "view",
      "type": "function"
    },
    {
      "inputs": [
        {
          "internalType": "address",
          "name": "to",
          "type": "address"
        },
        {
          "internalType": "uint256",
          "name": "tokenId",
          "type": "uint256"
        }
      ],
      "name": "approve",
      "outputs": [],
      "stateMutability": "nonpayable",
      "type": "function"
    },
    {
      "inputs": [
        {
          "internalType": "address",
          "name": "owner",
          "type": "address"
        }
      ],
      "name": "balanceOf",
      "outputs": [
        {
          "internalType": "uint256",
          "name": "",
          "type": "uint256"
        }
      ],
      "stateMutability": "view",
      "type": "function"
    },
    {
      "inputs": [
        {
          "internalType": "uint256",
          "name": "tokenId",
          "type": "uint256"
        }
      ],
      "name": "burn",
      "outputs": [],
      "stateMutability": "nonpayable",
      "type": "function"
    },
    {
      "inputs": [
        {
          "internalType": "address",
          "name": "delegatee",
          "type": "address"
        }
      ],
      "name": "delegate",
      "outputs": [],
      "stateMutability": "nonpayable",
      "type": "function"
    },
    {
      "inputs": [
        {
          "internalType": "address",
          "name": "delegatee",
          "type": "address"
        },
        {
          "internalType": "uint256",
          "name": "nonce",
          "type": "uint256"
        },
        {
          "internalType": "uint256",
          "name": "expiry",
          "type": "uint256"
        },
        {
          "internalType": "uint8",
          "name": "v",
          "type": "uint8"
        },
        {
          "internalType": "bytes32",
          "name": "r",
          "type": "bytes32"
        },
        {
          "internalType": "bytes32",
          "name": "s",
          "type": "bytes32"
        }
      ],
      "name": "delegateBySig",
      "outputs": [],
      "stateMutability": "nonpayable",
      "type": "function"
    },
    {
      "inputs": [
        {
          "internalType": "address",
          "name": "account",
          "type": "address"
        }
      ],
      "name": "delegates",
      "outputs": [
        {
          "internalType": "address",
          "name": "",
          "type": "address"
        }
      ],
      "stateMutability": "view",
      "type": "function"
    },
    {
      "inputs": [],
      "name": "deposit",
      "outputs": [],
      "stateMutability": "payable",
      "type": "function"
    },
    {
      "inputs": [
        {
          "internalType": "uint256",
          "name": "tokenId",
          "type": "uint256"
        }
      ],
      "name": "getApproved",
      "outputs": [
        {
          "internalType": "address",
          "name": "",
          "type": "address"
        }
      ],
      "stateMutability": "view",
      "type": "function"
    },
    {
      "inputs": [],
      "name": "getBalance",
      "outputs": [
        {
          "internalType": "uint256",
          "name": "",
          "type": "uint256"
        }
      ],
      "stateMutability": "view",
      "type": "function"
    },
    {
      "inputs": [],
      "name": "getNftNum",
      "outputs": [
        {
          "internalType": "int64",
          "name": "",
          "type": "int64"
        }
      ],
      "stateMutability": "view",
      "type": "function"
    },
    {
      "inputs": [
        {
          "internalType": "uint256",
          "name": "blockNumber",
          "type": "uint256"
        }
      ],
      "name": "getPastTotalSupply",
      "outputs": [
        {
          "internalType": "uint256",
          "name": "",
          "type": "uint256"
        }
      ],
      "stateMutability": "view",
      "type": "function"
    },
    {
      "inputs": [
        {
          "internalType": "address",
          "name": "account",
          "type": "address"
        },
        {
          "internalType": "uint256",
          "name": "blockNumber",
          "type": "uint256"
        }
      ],
      "name": "getPastVotes",
      "outputs": [
        {
          "internalType": "uint256",
          "name": "",
          "type": "uint256"
        }
      ],
      "stateMutability": "view",
      "type": "function"
    },
    {
      "inputs": [
        {
          "internalType": "address",
          "name": "account",
          "type": "address"
        }
      ],
      "name": "getVotes",
      "outputs": [
        {
          "internalType": "uint256",
          "name": "",
          "type": "uint256"
        }
      ],
      "stateMutability": "view",
      "type": "function"
    },
    {
      "inputs": [],
      "name": "incrementNftNum",
      "outputs": [
        {
          "internalType": "int64",
          "name": "",
          "type": "int64"
        }
      ],
      "stateMutability": "nonpayable",
      "type": "function"
    },
    {
      "inputs": [
        {
          "internalType": "address",
          "name": "owner",
          "type": "address"
        },
        {
          "internalType": "address",
          "name": "operator",
          "type": "address"
        }
      ],
      "name": "isApprovedForAll",
      "outputs": [
        {
          "internalType": "bool",
          "name": "",
          "type": "bool"
        }
      ],
      "stateMutability": "view",
      "type": "function"
    },
    {
      "inputs": [],
      "name": "name",
      "outputs": [
        {
          "internalType": "string",
          "name": "",
          "type": "string"
        }
      ],
      "stateMutability": "view",
      "type": "function"
    },
    {
      "inputs": [
        {
          "internalType": "address",
          "name": "owner",
          "type": "address"
        }
      ],
      "name": "nonces",
      "outputs": [
        {
          "internalType": "uint256",
          "name": "",
          "type": "uint256"
        }
      ],
      "stateMutability": "view",
      "type": "function"
    },
    {
      "inputs": [],
      "name": "owner",
      "outputs": [
        {
          "internalType": "address",
          "name": "",
          "type": "address"
        }
      ],
      "stateMutability": "view",
      "type": "function"
    },
    {
      "inputs": [
        {
          "internalType": "uint256",
          "name": "tokenId",
          "type": "uint256"
        }
      ],
      "name": "ownerOf",
      "outputs": [
        {
          "internalType": "address",
          "name": "",
          "type": "address"
        }
      ],
      "stateMutability": "view",
      "type": "function"
    },
    {
      "inputs": [],
      "name": "pause",
      "outputs": [],
      "stateMutability": "nonpayable",
      "type": "function"
    },
    {
      "inputs": [],
      "name": "paused",
      "outputs": [
        {
          "internalType": "bool",
          "name": "",
          "type": "bool"
        }
      ],
      "stateMutability": "view",
      "type": "function"
    },
    {
      "inputs": [],
      "name": "renounceOwnership",
      "outputs": [],
      "stateMutability": "nonpayable",
      "type": "function"
    },
    {
      "inputs": [
        {
          "internalType": "address",
          "name": "to",
          "type": "address"
        },
        {
          "internalType": "string",
          "name": "uri",
          "type": "string"
        }
      ],
      "name": "safeMint",
      "outputs": [],
      "stateMutability": "nonpayable",
      "type": "function"
    },
    {
      "inputs": [
        {
          "internalType": "address",
          "name": "from",
          "type": "address"
        },
        {
          "internalType": "address",
          "name": "to",
          "type": "address"
        },
        {
          "internalType": "uint256",
          "name": "tokenId",
          "type": "uint256"
        }
      ],
      "name": "safeTransferFrom",
      "outputs": [],
      "stateMutability": "nonpayable",
      "type": "function"
    },
    {
      "inputs": [
        {
          "internalType": "address",
          "name": "from",
          "type": "address"
        },
        {
          "internalType": "address",
          "name": "to",
          "type": "address"
        },
        {
          "internalType": "uint256",
          "name": "tokenId",
          "type": "uint256"
        },
        {
          "internalType": "bytes",
          "name": "data",
          "type": "bytes"
        }
      ],
      "name": "safeTransferFrom",
      "outputs": [],
      "stateMutability": "nonpayable",
      "type": "function"
    },
    {
      "inputs": [
        {
          "internalType": "address",
          "name": "operator",
          "type": "address"
        },
        {
          "internalType": "bool",
          "name": "approved",
          "type": "bool"
        }
      ],
      "name": "setApprovalForAll",
      "outputs": [],
      "stateMutability": "nonpayable",
      "type": "function"
    },
    {
      "inputs": [
        {
          "internalType": "bytes4",
          "name": "interfaceId",
          "type": "bytes4"
        }
      ],
      "name": "supportsInterface",
      "outputs": [
        {
          "internalType": "bool",
          "name": "",
          "type": "bool"
        }
      ],
      "stateMutability": "view",
      "type": "function"
    },
    {
      "inputs": [],
      "name": "symbol",
      "outputs": [
        {
          "internalType": "string",
          "name": "",
          "type": "string"
        }
      ],
      "stateMutability": "view",
      "type": "function"
    },
    {
      "inputs": [
        {
          "internalType": "uint256",
          "name": "index",
          "type": "uint256"
        }
      ],
      "name": "tokenByIndex",
      "outputs": [
        {
          "internalType": "uint256",
          "name": "",
          "type": "uint256"
        }
      ],
      "stateMutability": "view",
      "type": "function"
    },
    {
      "inputs": [
        {
          "internalType": "address",
          "name": "owner",
          "type": "address"
        },
        {
          "internalType": "uint256",
          "name": "index",
          "type": "uint256"
        }
      ],
      "name": "tokenOfOwnerByIndex",
      "outputs": [
        {
          "internalType": "uint256",
          "name": "",
          "type": "uint256"
        }
      ],
      "stateMutability": "view",
      "type": "function"
    },
    {
      "inputs": [
        {
          "internalType": "uint256",
          "name": "tokenId",
          "type": "uint256"
        }
      ],
      "name": "tokenURI",
      "outputs": [
        {
          "internalType": "string",
          "name": "",
          "type": "string"
        }
      ],
      "stateMutability": "view",
      "type": "function"
    },
    {
      "inputs": [],
      "name": "totalSupply",
      "outputs": [
        {
          "internalType": "uint256",
          "name": "",
          "type": "uint256"
        }
      ],
      "stateMutability": "view",
      "type": "function"
    },
    {
      "inputs": [
        {
          "internalType": "address",
          "name": "_to",
          "type": "address"
        },
        {
          "internalType": "uint256",
          "name": "_amount",
          "type": "uint256"
        }
      ],
      "name": "transfer",
      "outputs": [],
      "stateMutability": "nonpayable",
      "type": "function"
    },
    {
      "inputs": [
        {
          "internalType": "address",
          "name": "from",
          "type": "address"
        },
        {
          "internalType": "address",
          "name": "to",
          "type": "address"
        },
        {
          "internalType": "uint256",
          "name": "tokenId",
          "type": "uint256"
        }
      ],
      "name": "transferFrom",
      "outputs": [],
      "stateMutability": "nonpayable",
      "type": "function"
    },
    {
      "inputs": [
        {
          "internalType": "address",
          "name": "newOwner",
          "type": "address"
        }
      ],
      "name": "transferOwnership",
      "outputs": [],
      "stateMutability": "nonpayable",
      "type": "function"
    },
    {
      "inputs": [],
      "name": "unpause",
      "outputs": [],
      "stateMutability": "nonpayable",
      "type": "function"
    },
    {
      "inputs": [
        {
          "internalType": "uint256",
          "name": "_amount",
          "type": "uint256"
        }
      ],
      "name": "withdraw",
      "outputs": [],
      "stateMutability": "nonpayable",
      "type": "function"
    }
  ],
  "bytecode": "0x6101406040526000601160006101000a81548167ffffffffffffffff021916908360070b67ffffffffffffffff1602179055503480156200003f57600080fd5b506040518060400160405280600781526020017f4d79546f6b656e000000000000000000000000000000000000000000000000008152506040518060400160405280600181526020017f31000000000000000000000000000000000000000000000000000000000000008152506040518060400160405280600781526020017f4d79546f6b656e000000000000000000000000000000000000000000000000008152506040518060400160405280600381526020017f4d544b00000000000000000000000000000000000000000000000000000000008152508160009081620001299190620005b5565b5080600190816200013b9190620005b5565b5050506000600b60006101000a81548160ff021916908315150217905550620001796200016d6200023160201b60201c565b6200023960201b60201c565b60008280519060200120905060008280519060200120905060007f8b73c3c69bb8fe3d512ecc4cf759cc79239f7b179b0ffacaa9a75d522b39400f90508260e081815250508161010081815250504660a08181525050620001e2818484620002ff60201b60201c565b608081815250503073ffffffffffffffffffffffffffffffffffffffff1660c08173ffffffffffffffffffffffffffffffffffffffff168152505080610120818152505050505050506200076a565b600033905090565b6000600b60019054906101000a900473ffffffffffffffffffffffffffffffffffffffff16905081600b60016101000a81548173ffffffffffffffffffffffffffffffffffffffff021916908373ffffffffffffffffffffffffffffffffffffffff1602179055508173ffffffffffffffffffffffffffffffffffffffff168173ffffffffffffffffffffffffffffffffffffffff167f8be0079c531659141344cd1fd0a4f28419497f9722a3daafe3b4186f6b6457e060405160405180910390a35050565b600083838346306040516020016200031c9594939291906200070d565b6040516020818303038152906040528051906020012090509392505050565b600081519050919050565b7f4e487b7100000000000000000000000000000000000000000000000000000000600052604160045260246000fd5b7f4e487b7100000000000000000000000000000000000000000000000000000000600052602260045260246000fd5b60006002820490506001821680620003bd57607f821691505b602082108103620003d357620003d262000375565b5b50919050565b60008190508160005260206000209050919050565b60006020601f8301049050919050565b600082821b905092915050565b6000600883026200043d7fffffffffffffffffffffffffffffffffffffffffffffffffffffffffffffffff82620003fe565b620004498683620003fe565b95508019841693508086168417925050509392505050565b6000819050919050565b6000819050919050565b600062000496620004906200048a8462000461565b6200046b565b62000461565b9050919050565b6000819050919050565b620004b28362000475565b620004ca620004c1826200049d565b8484546200040b565b825550505050565b600090565b620004e1620004d2565b620004ee818484620004a7565b505050565b5b8181101562000516576200050a600082620004d7565b600181019050620004f4565b5050565b601f82111562000565576200052f81620003d9565b6200053a84620003ee565b810160208510156200054a578190505b620005626200055985620003ee565b830182620004f3565b50505b505050565b600082821c905092915050565b60006200058a600019846008026200056a565b1980831691505092915050565b6000620005a5838362000577565b9150826002028217905092915050565b620005c0826200033b565b67ffffffffffffffff811115620005dc57620005db62000346565b5b620005e88254620003a4565b620005f58282856200051a565b600060209050601f8311600181146200062d576000841562000618578287015190505b62000624858262000597565b86555062000694565b601f1984166200063d86620003d9565b60005b82811015620006675784890151825560018201915060208501945060208101905062000640565b8683101562000687578489015162000683601f89168262000577565b8355505b6001600288020188555050505b505050505050565b6000819050919050565b620006b1816200069c565b82525050565b620006c28162000461565b82525050565b600073ffffffffffffffffffffffffffffffffffffffff82169050919050565b6000620006f582620006c8565b9050919050565b6200070781620006e8565b82525050565b600060a082019050620007246000830188620006a6565b620007336020830187620006a6565b620007426040830186620006a6565b620007516060830185620006b7565b620007606080830184620006fc565b9695505050505050565b60805160a05160c05160e0516101005161012051615bcd620007ba6000396000611bca01526000611c0c01526000611beb01526000611b2001526000611b7601526000611b9f0152615bcd6000f3fe6080604052600436106102255760003560e01c806370a0823111610123578063a22cb465116100ab578063c87b56dd1161006f578063c87b56dd1461082b578063d0e30db014610868578063d204c45e14610872578063e985e9c51461089b578063f2fde38b146108d857610225565b8063a22cb4651461075c578063a9059cbb14610785578063b88d4fde146107ae578063ba9806e4146107d7578063c3cda5201461080257610225565b80638456cb59116100f25780638456cb59146106755780638da5cb5b1461068c5780638e539e8c146106b757806395d89b41146106f45780639ab24eb01461071f57610225565b806370a08231146105b9578063715018a6146105f657806376f61c3d1461060d5780637ecebe001461063857610225565b80633644e515116101b15780634f6ccce7116101755780634f6ccce7146104ae578063587cde1e146104eb5780635c19a95c146105285780635c975abb146105515780636352211e1461057c57610225565b80633644e515146103dd5780633a46b1a8146104085780633f4ba83a1461044557806342842e0e1461045c57806342966c681461048557610225565b806312065fe0116101f857806312065fe0146102f857806318160ddd1461032357806323b872dd1461034e5780632e1a7d4d146103775780632f745c59146103a057610225565b806301ffc9a71461022a57806306fdde0314610267578063081812fc14610292578063095ea7b3146102cf575b600080fd5b34801561023657600080fd5b50610251600480360381019061024c9190613dae565b610901565b60405161025e9190613df6565b60405180910390f35b34801561027357600080fd5b5061027c610913565b6040516102899190613ea1565b60405180910390f35b34801561029e57600080fd5b506102b960048036038101906102b49190613ef9565b6109a5565b6040516102c69190613f67565b60405180910390f35b3480156102db57600080fd5b506102f660048036038101906102f19190613fae565b6109eb565b005b34801561030457600080fd5b5061030d610b02565b60405161031a9190613ffd565b60405180910390f35b34801561032f57600080fd5b50610338610b49565b6040516103459190613ffd565b60405180910390f35b34801561035a57600080fd5b5061037560048036038101906103709190614018565b610b56565b005b34801561038357600080fd5b5061039e60048036038101906103999190613ef9565b610bb6565b005b3480156103ac57600080fd5b506103c760048036038101906103c29190613fae565b610c56565b6040516103d49190613ffd565b60405180910390f35b3480156103e957600080fd5b506103f2610cfb565b6040516103ff9190614084565b60405180910390f35b34801561041457600080fd5b5061042f600480360381019061042a9190613fae565b610d0a565b60405161043c9190613ffd565b60405180910390f35b34801561045157600080fd5b5061045a610d65565b005b34801561046857600080fd5b50610483600480360381019061047e9190614018565b610d77565b005b34801561049157600080fd5b506104ac60048036038101906104a79190613ef9565b610d97565b005b3480156104ba57600080fd5b506104d560048036038101906104d09190613ef9565b610df3565b6040516104e29190613ffd565b60405180910390f35b3480156104f757600080fd5b50610512600480360381019061050d919061409f565b610e64565b60405161051f9190613f67565b60405180910390f35b34801561053457600080fd5b5061054f600480360381019061054a919061409f565b610ecd565b005b34801561055d57600080fd5b50610566610ee7565b6040516105739190613df6565b60405180910390f35b34801561058857600080fd5b506105a3600480360381019061059e9190613ef9565b610efe565b6040516105b09190613f67565b60405180910390f35b3480156105c557600080fd5b506105e060048036038101906105db919061409f565b610faf565b6040516105ed9190613ffd565b60405180910390f35b34801561060257600080fd5b5061060b611066565b005b34801561061957600080fd5b5061062261107a565b60405161062f91906140e8565b60405180910390f35b34801561064457600080fd5b5061065f600480360381019061065a919061409f565b611091565b60405161066c9190613ffd565b60405180910390f35b34801561068157600080fd5b5061068a6110e1565b005b34801561069857600080fd5b506106a16110f3565b6040516106ae9190613f67565b60405180910390f35b3480156106c357600080fd5b506106de60048036038101906106d99190613ef9565b61111d565b6040516106eb9190613ffd565b60405180910390f35b34801561070057600080fd5b5061070961117c565b6040516107169190613ea1565b60405180910390f35b34801561072b57600080fd5b506107466004803603810190610741919061409f565b61120e565b6040516107539190613ffd565b60405180910390f35b34801561076857600080fd5b50610783600480360381019061077e919061412f565b61125e565b005b34801561079157600080fd5b506107ac60048036038101906107a79190613fae565b611274565b005b3480156107ba57600080fd5b506107d560048036038101906107d091906142a4565b611324565b005b3480156107e357600080fd5b506107ec611386565b6040516107f991906140e8565b60405180910390f35b34801561080e57600080fd5b506108296004803603810190610824919061438c565b6113e5565b005b34801561083757600080fd5b50610852600480360381019061084d9190613ef9565b6114e9565b60405161085f9190613ea1565b60405180910390f35b6108706114fb565b005b34801561087e57600080fd5b50610899600480360381019061089491906144ba565b611553565b005b3480156108a757600080fd5b506108c260048036038101906108bd9190614516565b611584565b6040516108cf9190613df6565b60405180910390f35b3480156108e457600080fd5b506108ff60048036038101906108fa919061409f565b611618565b005b600061090c8261169b565b9050919050565b60606000805461092290614585565b80601f016020809104026020016040519081016040528092919081815260200182805461094e90614585565b801561099b5780601f106109705761010080835404028352916020019161099b565b820191906000526020600020905b81548152906001019060200180831161097e57829003601f168201915b5050505050905090565b60006109b082611715565b6004600083815260200190815260200160002060009054906101000a900473ffffffffffffffffffffffffffffffffffffffff169050919050565b60006109f682610efe565b90508073ffffffffffffffffffffffffffffffffffffffff168373ffffffffffffffffffffffffffffffffffffffff1603610a66576040517f08c379a0000000000000000000000000000000000000000000000000000000008152600401610a5d90614628565b60405180910390fd5b8073ffffffffffffffffffffffffffffffffffffffff16610a85611760565b73ffffffffffffffffffffffffffffffffffffffff161480610ab45750610ab381610aae611760565b611584565b5b610af3576040517f08c379a0000000000000000000000000000000000000000000000000000000008152600401610aea906146ba565b60405180910390fd5b610afd8383611768565b505050565b6000601260003373ffffffffffffffffffffffffffffffffffffffff1673ffffffffffffffffffffffffffffffffffffffff16815260200190815260200160002054905090565b6000600880549050905090565b610b67610b61611760565b82611821565b610ba6576040517f08c379a0000000000000000000000000000000000000000000000000000000008152600401610b9d9061474c565b60405180910390fd5b610bb18383836118b6565b505050565b80601260003373ffffffffffffffffffffffffffffffffffffffff1673ffffffffffffffffffffffffffffffffffffffff1681526020019081526020016000206000828254610c05919061479b565b925050819055503373ffffffffffffffffffffffffffffffffffffffff166108fc829081150290604051600060405180830381858888f19350505050158015610c52573d6000803e3d6000fd5b5050565b6000610c6183610faf565b8210610ca2576040517f08c379a0000000000000000000000000000000000000000000000000000000008152600401610c9990614841565b60405180910390fd5b600660008473ffffffffffffffffffffffffffffffffffffffff1673ffffffffffffffffffffffffffffffffffffffff168152602001908152602001600020600083815260200190815260200160002054905092915050565b6000610d05611b1c565b905090565b6000610d5d82600d60008673ffffffffffffffffffffffffffffffffffffffff1673ffffffffffffffffffffffffffffffffffffffff168152602001908152602001600020611c3690919063ffffffff16565b905092915050565b610d6d611d8e565b610d75611e0c565b565b610d9283838360405180602001604052806000815250611324565b505050565b610da8610da2611760565b82611821565b610de7576040517f08c379a0000000000000000000000000000000000000000000000000000000008152600401610dde9061474c565b60405180910390fd5b610df081611e6f565b50565b6000610dfd610b49565b8210610e3e576040517f08c379a0000000000000000000000000000000000000000000000000000000008152600401610e35906148d3565b60405180910390fd5b60088281548110610e5257610e516148f3565b5b90600052602060002001549050919050565b6000600c60008373ffffffffffffffffffffffffffffffffffffffff1673ffffffffffffffffffffffffffffffffffffffff16815260200190815260200160002060009054906101000a900473ffffffffffffffffffffffffffffffffffffffff169050919050565b6000610ed7611760565b9050610ee38183611e7b565b5050565b6000600b60009054906101000a900460ff16905090565b6000806002600084815260200190815260200160002060009054906101000a900473ffffffffffffffffffffffffffffffffffffffff169050600073ffffffffffffffffffffffffffffffffffffffff168173ffffffffffffffffffffffffffffffffffffffff1603610fa6576040517f08c379a0000000000000000000000000000000000000000000000000000000008152600401610f9d9061496e565b60405180910390fd5b80915050919050565b60008073ffffffffffffffffffffffffffffffffffffffff168273ffffffffffffffffffffffffffffffffffffffff160361101f576040517f08c379a000000000000000000000000000000000000000000000000000000000815260040161101690614a00565b60405180910390fd5b600360008373ffffffffffffffffffffffffffffffffffffffff1673ffffffffffffffffffffffffffffffffffffffff168152602001908152602001600020549050919050565b61106e611d8e565b6110786000611f8f565b565b6000601160009054906101000a900460070b905090565b60006110da600f60008473ffffffffffffffffffffffffffffffffffffffff1673ffffffffffffffffffffffffffffffffffffffff168152602001908152602001600020612055565b9050919050565b6110e9611d8e565b6110f1612063565b565b6000600b60019054906101000a900473ffffffffffffffffffffffffffffffffffffffff16905090565b6000438210611161576040517f08c379a000000000000000000000000000000000000000000000000000000000815260040161115890614a6c565b60405180910390fd5b61117582600e611c3690919063ffffffff16565b9050919050565b60606001805461118b90614585565b80601f01602080910402602001604051908101604052809291908181526020018280546111b790614585565b80156112045780601f106111d957610100808354040283529160200191611204565b820191906000526020600020905b8154815290600101906020018083116111e757829003601f168201915b5050505050905090565b6000611257600d60008473ffffffffffffffffffffffffffffffffffffffff1673ffffffffffffffffffffffffffffffffffffffff1681526020019081526020016000206120c6565b9050919050565b611270611269611760565b8383612161565b5050565b80601260003373ffffffffffffffffffffffffffffffffffffffff1673ffffffffffffffffffffffffffffffffffffffff16815260200190815260200160002060008282546112c3919061479b565b9250508190555080601260008473ffffffffffffffffffffffffffffffffffffffff1673ffffffffffffffffffffffffffffffffffffffff16815260200190815260200160002060008282546113199190614a8c565b925050819055505050565b61133561132f611760565b83611821565b611374576040517f08c379a000000000000000000000000000000000000000000000000000000000815260040161136b9061474c565b60405180910390fd5b611380848484846122cd565b50505050565b60006001601160008282829054906101000a900460070b6113a79190614ac0565b92506101000a81548167ffffffffffffffff021916908360070b67ffffffffffffffff160217905550601160009054906101000a900460070b905090565b83421115611428576040517f08c379a000000000000000000000000000000000000000000000000000000000815260040161141f90614b6c565b60405180910390fd5b600061148a6114827fe48329057bfd03d55e49b547132e39cffd9c1820ad7b9d4c5307691425d15adf8989896040516020016114679493929190614b8c565b60405160208183030381529060405280519060200120612329565b858585612343565b90506114958161236e565b86146114d6576040517f08c379a00000000000000000000000000000000000000000000000000000000081526004016114cd90614c1d565b60405180910390fd5b6114e08188611e7b565b50505050505050565b60606114f4826123cc565b9050919050565b34601260003373ffffffffffffffffffffffffffffffffffffffff1673ffffffffffffffffffffffffffffffffffffffff168152602001908152602001600020600082825461154a9190614a8c565b92505081905550565b600061155f6010612055565b905061156b60106124de565b61157583826124f4565b61157f8183612512565b505050565b6000600560008473ffffffffffffffffffffffffffffffffffffffff1673ffffffffffffffffffffffffffffffffffffffff16815260200190815260200160002060008373ffffffffffffffffffffffffffffffffffffffff1673ffffffffffffffffffffffffffffffffffffffff16815260200190815260200160002060009054906101000a900460ff16905092915050565b611620611d8e565b600073ffffffffffffffffffffffffffffffffffffffff168173ffffffffffffffffffffffffffffffffffffffff160361168f576040517f08c379a000000000000000000000000000000000000000000000000000000000815260040161168690614caf565b60405180910390fd5b61169881611f8f565b50565b60007f780e9d63000000000000000000000000000000000000000000000000000000007bffffffffffffffffffffffffffffffffffffffffffffffffffffffff1916827bffffffffffffffffffffffffffffffffffffffffffffffffffffffff1916148061170e575061170d8261257f565b5b9050919050565b61171e81612661565b61175d576040517f08c379a00000000000000000000000000000000000000000000000000000000081526004016117549061496e565b60405180910390fd5b50565b600033905090565b816004600083815260200190815260200160002060006101000a81548173ffffffffffffffffffffffffffffffffffffffff021916908373ffffffffffffffffffffffffffffffffffffffff160217905550808273ffffffffffffffffffffffffffffffffffffffff166117db83610efe565b73ffffffffffffffffffffffffffffffffffffffff167f8c5be1e5ebec7d5bd14f71427d1e84f3dd0314c0f7b2291e5b200ac8c7c3b92560405160405180910390a45050565b60008061182d83610efe565b90508073ffffffffffffffffffffffffffffffffffffffff168473ffffffffffffffffffffffffffffffffffffffff16148061186f575061186e8185611584565b5b806118ad57508373ffffffffffffffffffffffffffffffffffffffff16611895846109a5565b73ffffffffffffffffffffffffffffffffffffffff16145b91505092915050565b8273ffffffffffffffffffffffffffffffffffffffff166118d682610efe565b73ffffffffffffffffffffffffffffffffffffffff161461192c576040517f08c379a000000000000000000000000000000000000000000000000000000000815260040161192390614d41565b60405180910390fd5b600073ffffffffffffffffffffffffffffffffffffffff168273ffffffffffffffffffffffffffffffffffffffff160361199b576040517f08c379a000000000000000000000000000000000000000000000000000000000815260040161199290614dd3565b60405180910390fd5b6119a68383836126cd565b6119b1600082611768565b6001600360008573ffffffffffffffffffffffffffffffffffffffff1673ffffffffffffffffffffffffffffffffffffffff1681526020019081526020016000206000828254611a01919061479b565b925050819055506001600360008473ffffffffffffffffffffffffffffffffffffffff1673ffffffffffffffffffffffffffffffffffffffff1681526020019081526020016000206000828254611a589190614a8c565b92505081905550816002600083815260200190815260200160002060006101000a81548173ffffffffffffffffffffffffffffffffffffffff021916908373ffffffffffffffffffffffffffffffffffffffff160217905550808273ffffffffffffffffffffffffffffffffffffffff168473ffffffffffffffffffffffffffffffffffffffff167fddf252ad1be2c89b69c2b068fc378daa952ba7f163c4a11628f55a4df523b3ef60405160405180910390a4611b178383836126e5565b505050565b60007f000000000000000000000000000000000000000000000000000000000000000073ffffffffffffffffffffffffffffffffffffffff163073ffffffffffffffffffffffffffffffffffffffff16148015611b9857507f000000000000000000000000000000000000000000000000000000000000000046145b15611bc5577f00000000000000000000000000000000000000000000000000000000000000009050611c33565b611c307f00000000000000000000000000000000000000000000000000000000000000007f00000000000000000000000000000000000000000000000000000000000000007f00000000000000000000000000000000000000000000000000000000000000006126f5565b90505b90565b6000438210611c7a576040517f08c379a0000000000000000000000000000000000000000000000000000000008152600401611c7190614e3f565b60405180910390fd5b60008360000180549050905060005b81811015611cfe576000611c9d828461272f565b905084866000018281548110611cb657611cb56148f3565b5b9060005260206000200160000160009054906101000a900463ffffffff1663ffffffff161115611ce857809250611cf8565b600181611cf59190614a8c565b91505b50611c89565b60008214611d635784600001600183611d17919061479b565b81548110611d2857611d276148f3565b5b9060005260206000200160000160049054906101000a90047bffffffffffffffffffffffffffffffffffffffffffffffffffffffff16611d66565b60005b7bffffffffffffffffffffffffffffffffffffffffffffffffffffffff169250505092915050565b611d96611760565b73ffffffffffffffffffffffffffffffffffffffff16611db46110f3565b73ffffffffffffffffffffffffffffffffffffffff1614611e0a576040517f08c379a0000000000000000000000000000000000000000000000000000000008152600401611e0190614eab565b60405180910390fd5b565b611e14612755565b6000600b60006101000a81548160ff0219169083151502179055507f5db9ee0a495bf2e6ff9c91a7834c1ba4fdd244a5e8aa4e537bd38aeae4b073aa611e58611760565b604051611e659190613f67565b60405180910390a1565b611e788161279e565b50565b6000611e8683610e64565b905081600c60008573ffffffffffffffffffffffffffffffffffffffff1673ffffffffffffffffffffffffffffffffffffffff16815260200190815260200160002060006101000a81548173ffffffffffffffffffffffffffffffffffffffff021916908373ffffffffffffffffffffffffffffffffffffffff1602179055508173ffffffffffffffffffffffffffffffffffffffff168173ffffffffffffffffffffffffffffffffffffffff168473ffffffffffffffffffffffffffffffffffffffff167f3134e8a2e6d97e929a7e54011ea5485d7d196dd5f0ba4d4ef95803e8e3fc257f60405160405180910390a4611f8a8183611f85866127f1565b612803565b505050565b6000600b60019054906101000a900473ffffffffffffffffffffffffffffffffffffffff16905081600b60016101000a81548173ffffffffffffffffffffffffffffffffffffffff021916908373ffffffffffffffffffffffffffffffffffffffff1602179055508173ffffffffffffffffffffffffffffffffffffffff168173ffffffffffffffffffffffffffffffffffffffff167f8be0079c531659141344cd1fd0a4f28419497f9722a3daafe3b4186f6b6457e060405160405180910390a35050565b600081600001549050919050565b61206b612a10565b6001600b60006101000a81548160ff0219169083151502179055507f62e78cea01bee320cd4e420270b5ea74000d11b0c9f74754ebdbfc544b05a2586120af611760565b6040516120bc9190613f67565b60405180910390a1565b600080826000018054905090506000811461213857826000016001826120ec919061479b565b815481106120fd576120fc6148f3565b5b9060005260206000200160000160049054906101000a90047bffffffffffffffffffffffffffffffffffffffffffffffffffffffff1661213b565b60005b7bffffffffffffffffffffffffffffffffffffffffffffffffffffffff16915050919050565b8173ffffffffffffffffffffffffffffffffffffffff168373ffffffffffffffffffffffffffffffffffffffff16036121cf576040517f08c379a00000000000000000000000000000000000000000000000000000000081526004016121c690614f17565b60405180910390fd5b80600560008573ffffffffffffffffffffffffffffffffffffffff1673ffffffffffffffffffffffffffffffffffffffff16815260200190815260200160002060008473ffffffffffffffffffffffffffffffffffffffff1673ffffffffffffffffffffffffffffffffffffffff16815260200190815260200160002060006101000a81548160ff0219169083151502179055508173ffffffffffffffffffffffffffffffffffffffff168373ffffffffffffffffffffffffffffffffffffffff167f17307eab39ab6107e8899845ad3d59bd9653f200f220920489ca2b5937696c31836040516122c09190613df6565b60405180910390a3505050565b6122d88484846118b6565b6122e484848484612a5a565b612323576040517f08c379a000000000000000000000000000000000000000000000000000000000815260040161231a90614fa9565b60405180910390fd5b50505050565b600061233c612336611b1c565b83612be1565b9050919050565b600080600061235487878787612c14565b9150915061236181612d20565b8192505050949350505050565b600080600f60008473ffffffffffffffffffffffffffffffffffffffff1673ffffffffffffffffffffffffffffffffffffffff16815260200190815260200160002090506123bb81612055565b91506123c6816124de565b50919050565b60606123d782611715565b6000600a600084815260200190815260200160002080546123f790614585565b80601f016020809104026020016040519081016040528092919081815260200182805461242390614585565b80156124705780601f1061244557610100808354040283529160200191612470565b820191906000526020600020905b81548152906001019060200180831161245357829003601f168201915b505050505090506000612481612eec565b905060008151036124965781925050506124d9565b6000825111156124cb5780826040516020016124b3929190615005565b604051602081830303815290604052925050506124d9565b6124d484612f29565b925050505b919050565b6001816000016000828254019250508190555050565b61250e828260405180602001604052806000815250612f91565b5050565b61251b82612661565b61255a576040517f08c379a00000000000000000000000000000000000000000000000000000000081526004016125519061509b565b60405180910390fd5b80600a6000848152602001908152602001600020908161257a9190615267565b505050565b60007f80ac58cd000000000000000000000000000000000000000000000000000000007bffffffffffffffffffffffffffffffffffffffffffffffffffffffff1916827bffffffffffffffffffffffffffffffffffffffffffffffffffffffff1916148061264a57507f5b5e139f000000000000000000000000000000000000000000000000000000007bffffffffffffffffffffffffffffffffffffffffffffffffffffffff1916827bffffffffffffffffffffffffffffffffffffffffffffffffffffffff1916145b8061265a575061265982612fec565b5b9050919050565b60008073ffffffffffffffffffffffffffffffffffffffff166002600084815260200190815260200160002060009054906101000a900473ffffffffffffffffffffffffffffffffffffffff1673ffffffffffffffffffffffffffffffffffffffff1614159050919050565b6126d5612a10565b6126e0838383613056565b505050565b6126f0838383613168565b505050565b60008383834630604051602001612710959493929190615339565b6040516020818303038152906040528051906020012090509392505050565b6000600282841861274091906153bb565b82841661274d9190614a8c565b905092915050565b61275d610ee7565b61279c576040517f08c379a000000000000000000000000000000000000000000000000000000000815260040161279390615438565b60405180910390fd5b565b6127a781613184565b6000600a600083815260200190815260200160002080546127c790614585565b9050146127ee57600a600082815260200190815260200160002060006127ed9190613ce5565b5b50565b60006127fc82610faf565b9050919050565b8173ffffffffffffffffffffffffffffffffffffffff168373ffffffffffffffffffffffffffffffffffffffff161415801561283f5750600081115b15612a0b57600073ffffffffffffffffffffffffffffffffffffffff168373ffffffffffffffffffffffffffffffffffffffff1614612927576000806128d06132a184600d60008973ffffffffffffffffffffffffffffffffffffffff1673ffffffffffffffffffffffffffffffffffffffff1681526020019081526020016000206132b79092919063ffffffff16565b915091508473ffffffffffffffffffffffffffffffffffffffff167fdec2bacdd2f05b59de34da9b523dff8be42e5e38e818c82fdb0bae774387a724838360405161291c929190615458565b60405180910390a250505b600073ffffffffffffffffffffffffffffffffffffffff168273ffffffffffffffffffffffffffffffffffffffff1614612a0a576000806129b36132e584600d60008873ffffffffffffffffffffffffffffffffffffffff1673ffffffffffffffffffffffffffffffffffffffff1681526020019081526020016000206132b79092919063ffffffff16565b915091508373ffffffffffffffffffffffffffffffffffffffff167fdec2bacdd2f05b59de34da9b523dff8be42e5e38e818c82fdb0bae774387a72483836040516129ff929190615458565b60405180910390a250505b5b505050565b612a18610ee7565b15612a58576040517f08c379a0000000000000000000000000000000000000000000000000000000008152600401612a4f906154cd565b60405180910390fd5b565b6000612a7b8473ffffffffffffffffffffffffffffffffffffffff166132fb565b15612bd4578373ffffffffffffffffffffffffffffffffffffffff1663150b7a02612aa4611760565b8786866040518563ffffffff1660e01b8152600401612ac69493929190615542565b6020604051808303816000875af1925050508015612b0257506040513d601f19601f82011682018060405250810190612aff91906155a3565b60015b612b84573d8060008114612b32576040519150601f19603f3d011682016040523d82523d6000602084013e612b37565b606091505b506000815103612b7c576040517f08c379a0000000000000000000000000000000000000000000000000000000008152600401612b7390614fa9565b60405180910390fd5b805181602001fd5b63150b7a0260e01b7bffffffffffffffffffffffffffffffffffffffffffffffffffffffff1916817bffffffffffffffffffffffffffffffffffffffffffffffffffffffff191614915050612bd9565b600190505b949350505050565b60008282604051602001612bf692919061563d565b60405160208183030381529060405280519060200120905092915050565b6000807f7fffffffffffffffffffffffffffffff5d576e7357a4501ddfe92f46681b20a08360001c1115612c4f576000600391509150612d17565b601b8560ff1614158015612c675750601c8560ff1614155b15612c79576000600491509150612d17565b600060018787878760405160008152602001604052604051612c9e9493929190615683565b6020604051602081039080840390855afa158015612cc0573d6000803e3d6000fd5b505050602060405103519050600073ffffffffffffffffffffffffffffffffffffffff168173ffffffffffffffffffffffffffffffffffffffff1603612d0e57600060019250925050612d17565b80600092509250505b94509492505050565b60006004811115612d3457612d336156c8565b5b816004811115612d4757612d466156c8565b5b0315612ee95760016004811115612d6157612d606156c8565b5b816004811115612d7457612d736156c8565b5b03612db4576040517f08c379a0000000000000000000000000000000000000000000000000000000008152600401612dab90615743565b60405180910390fd5b60026004811115612dc857612dc76156c8565b5b816004811115612ddb57612dda6156c8565b5b03612e1b576040517f08c379a0000000000000000000000000000000000000000000000000000000008152600401612e12906157af565b60405180910390fd5b60036004811115612e2f57612e2e6156c8565b5b816004811115612e4257612e416156c8565b5b03612e82576040517f08c379a0000000000000000000000000000000000000000000000000000000008152600401612e7990615841565b60405180910390fd5b600480811115612e9557612e946156c8565b5b816004811115612ea857612ea76156c8565b5b03612ee8576040517f08c379a0000000000000000000000000000000000000000000000000000000008152600401612edf906158d3565b60405180910390fd5b5b50565b60606040518060400160405280601581526020017f68747470733a2f2f697066732e696f2f697066732f0000000000000000000000815250905090565b6060612f3482611715565b6000612f3e612eec565b90506000815111612f5e5760405180602001604052806000815250612f89565b80612f688461331e565b604051602001612f79929190615005565b6040516020818303038152906040525b915050919050565b612f9b838361347e565b612fa86000848484612a5a565b612fe7576040517f08c379a0000000000000000000000000000000000000000000000000000000008152600401612fde90614fa9565b60405180910390fd5b505050565b60007f01ffc9a7000000000000000000000000000000000000000000000000000000007bffffffffffffffffffffffffffffffffffffffffffffffffffffffff1916827bffffffffffffffffffffffffffffffffffffffffffffffffffffffff1916149050919050565b613061838383613657565b600073ffffffffffffffffffffffffffffffffffffffff168373ffffffffffffffffffffffffffffffffffffffff16036130a35761309e8161365c565b6130e2565b8173ffffffffffffffffffffffffffffffffffffffff168373ffffffffffffffffffffffffffffffffffffffff16146130e1576130e083826136a5565b5b5b600073ffffffffffffffffffffffffffffffffffffffff168273ffffffffffffffffffffffffffffffffffffffff16036131245761311f81613812565b613163565b8273ffffffffffffffffffffffffffffffffffffffff168273ffffffffffffffffffffffffffffffffffffffff16146131625761316182826138e3565b5b5b505050565b61317483836001613962565b61317f838383613a20565b505050565b600061318f82610efe565b905061319d816000846126cd565b6131a8600083611768565b6001600360008373ffffffffffffffffffffffffffffffffffffffff1673ffffffffffffffffffffffffffffffffffffffff16815260200190815260200160002060008282546131f8919061479b565b925050819055506002600083815260200190815260200160002060006101000a81549073ffffffffffffffffffffffffffffffffffffffff021916905581600073ffffffffffffffffffffffffffffffffffffffff168273ffffffffffffffffffffffffffffffffffffffff167fddf252ad1be2c89b69c2b068fc378daa952ba7f163c4a11628f55a4df523b3ef60405160405180910390a461329d816000846126e5565b5050565b600081836132af919061479b565b905092915050565b6000806132d9856132d46132ca886120c6565b868863ffffffff16565b613a25565b91509150935093915050565b600081836132f39190614a8c565b905092915050565b6000808273ffffffffffffffffffffffffffffffffffffffff163b119050919050565b606060008203613365576040518060400160405280600181526020017f30000000000000000000000000000000000000000000000000000000000000008152509050613479565b600082905060005b60008214613397578080613380906158f3565b915050600a8261339091906153bb565b915061336d565b60008167ffffffffffffffff8111156133b3576133b2614179565b5b6040519080825280601f01601f1916602001820160405280156133e55781602001600182028036833780820191505090505b5090505b60008514613472576001826133fe919061479b565b9150600a8561340d919061593b565b60306134199190614a8c565b60f81b81838151811061342f5761342e6148f3565b5b60200101907effffffffffffffffffffffffffffffffffffffffffffffffffffffffffffff1916908160001a905350600a8561346b91906153bb565b94506133e9565b8093505050505b919050565b600073ffffffffffffffffffffffffffffffffffffffff168273ffffffffffffffffffffffffffffffffffffffff16036134ed576040517f08c379a00000000000000000000000000000000000000000000000000000000081526004016134e4906159b8565b60405180910390fd5b6134f681612661565b15613536576040517f08c379a000000000000000000000000000000000000000000000000000000000815260040161352d90615a24565b60405180910390fd5b613542600083836126cd565b6001600360008473ffffffffffffffffffffffffffffffffffffffff1673ffffffffffffffffffffffffffffffffffffffff16815260200190815260200160002060008282546135929190614a8c565b92505081905550816002600083815260200190815260200160002060006101000a81548173ffffffffffffffffffffffffffffffffffffffff021916908373ffffffffffffffffffffffffffffffffffffffff160217905550808273ffffffffffffffffffffffffffffffffffffffff16600073ffffffffffffffffffffffffffffffffffffffff167fddf252ad1be2c89b69c2b068fc378daa952ba7f163c4a11628f55a4df523b3ef60405160405180910390a4613653600083836126e5565b5050565b505050565b6008805490506009600083815260200190815260200160002081905550600881908060018154018082558091505060019003906000526020600020016000909190919091505550565b600060016136b284610faf565b6136bc919061479b565b90506000600760008481526020019081526020016000205490508181146137a1576000600660008673ffffffffffffffffffffffffffffffffffffffff1673ffffffffffffffffffffffffffffffffffffffff168152602001908152602001600020600084815260200190815260200160002054905080600660008773ffffffffffffffffffffffffffffffffffffffff1673ffffffffffffffffffffffffffffffffffffffff168152602001908152602001600020600084815260200190815260200160002081905550816007600083815260200190815260200160002081905550505b6007600084815260200190815260200160002060009055600660008573ffffffffffffffffffffffffffffffffffffffff1673ffffffffffffffffffffffffffffffffffffffff16815260200190815260200160002060008381526020019081526020016000206000905550505050565b60006001600880549050613826919061479b565b9050600060096000848152602001908152602001600020549050600060088381548110613856576138556148f3565b5b906000526020600020015490508060088381548110613878576138776148f3565b5b9060005260206000200181905550816009600083815260200190815260200160002081905550600960008581526020019081526020016000206000905560088054806138c7576138c6615a44565b5b6001900381819060005260206000200160009055905550505050565b60006138ee83610faf565b905081600660008573ffffffffffffffffffffffffffffffffffffffff1673ffffffffffffffffffffffffffffffffffffffff168152602001908152602001600020600083815260200190815260200160002081905550806007600084815260200190815260200160002081905550505050565b600073ffffffffffffffffffffffffffffffffffffffff168373ffffffffffffffffffffffffffffffffffffffff16036139b1576139ae6132e582600e6132b79092919063ffffffff16565b50505b600073ffffffffffffffffffffffffffffffffffffffff168273ffffffffffffffffffffffffffffffffffffffff1603613a00576139fd6132a182600e6132b79092919063ffffffff16565b50505b613a1b613a0c84610e64565b613a1584610e64565b83612803565b505050565b505050565b6000806000846000018054905090506000613a3f866120c6565b9050600082118015613a9557504386600001600184613a5e919061479b565b81548110613a6f57613a6e6148f3565b5b9060005260206000200160000160009054906101000a900463ffffffff1663ffffffff16145b15613b2557613aa385613c27565b86600001600184613ab4919061479b565b81548110613ac557613ac46148f3565b5b9060005260206000200160000160046101000a8154817bffffffffffffffffffffffffffffffffffffffffffffffffffffffff02191690837bffffffffffffffffffffffffffffffffffffffffffffffffffffffff160217905550613c18565b856000016040518060400160405280613b3d43613c92565b63ffffffff168152602001613b5188613c27565b7bffffffffffffffffffffffffffffffffffffffffffffffffffffffff168152509080600181540180825580915050600190039060005260206000200160009091909190915060008201518160000160006101000a81548163ffffffff021916908363ffffffff16021790555060208201518160000160046101000a8154817bffffffffffffffffffffffffffffffffffffffffffffffffffffffff02191690837bffffffffffffffffffffffffffffffffffffffffffffffffffffffff16021790555050505b80859350935050509250929050565b60007bffffffffffffffffffffffffffffffffffffffffffffffffffffffff8016821115613c8a576040517f08c379a0000000000000000000000000000000000000000000000000000000008152600401613c8190615ae5565b60405180910390fd5b819050919050565b600063ffffffff8016821115613cdd576040517f08c379a0000000000000000000000000000000000000000000000000000000008152600401613cd490615b77565b60405180910390fd5b819050919050565b508054613cf190614585565b6000825580601f10613d035750613d22565b601f016020900490600052602060002090810190613d219190613d25565b5b50565b5b80821115613d3e576000816000905550600101613d26565b5090565b6000604051905090565b600080fd5b600080fd5b60007fffffffff0000000000000000000000000000000000000000000000000000000082169050919050565b613d8b81613d56565b8114613d9657600080fd5b50565b600081359050613da881613d82565b92915050565b600060208284031215613dc457613dc3613d4c565b5b6000613dd284828501613d99565b91505092915050565b60008115159050919050565b613df081613ddb565b82525050565b6000602082019050613e0b6000830184613de7565b92915050565b600081519050919050565b600082825260208201905092915050565b60005b83811015613e4b578082015181840152602081019050613e30565b60008484015250505050565b6000601f19601f8301169050919050565b6000613e7382613e11565b613e7d8185613e1c565b9350613e8d818560208601613e2d565b613e9681613e57565b840191505092915050565b60006020820190508181036000830152613ebb8184613e68565b905092915050565b6000819050919050565b613ed681613ec3565b8114613ee157600080fd5b50565b600081359050613ef381613ecd565b92915050565b600060208284031215613f0f57613f0e613d4c565b5b6000613f1d84828501613ee4565b91505092915050565b600073ffffffffffffffffffffffffffffffffffffffff82169050919050565b6000613f5182613f26565b9050919050565b613f6181613f46565b82525050565b6000602082019050613f7c6000830184613f58565b92915050565b613f8b81613f46565b8114613f9657600080fd5b50565b600081359050613fa881613f82565b92915050565b60008060408385031215613fc557613fc4613d4c565b5b6000613fd385828601613f99565b9250506020613fe485828601613ee4565b9150509250929050565b613ff781613ec3565b82525050565b60006020820190506140126000830184613fee565b92915050565b60008060006060848603121561403157614030613d4c565b5b600061403f86828701613f99565b935050602061405086828701613f99565b925050604061406186828701613ee4565b9150509250925092565b6000819050919050565b61407e8161406b565b82525050565b60006020820190506140996000830184614075565b92915050565b6000602082840312156140b5576140b4613d4c565b5b60006140c384828501613f99565b91505092915050565b60008160070b9050919050565b6140e2816140cc565b82525050565b60006020820190506140fd60008301846140d9565b92915050565b61410c81613ddb565b811461411757600080fd5b50565b60008135905061412981614103565b92915050565b6000806040838503121561414657614145613d4c565b5b600061415485828601613f99565b92505060206141658582860161411a565b9150509250929050565b600080fd5b600080fd5b7f4e487b7100000000000000000000000000000000000000000000000000000000600052604160045260246000fd5b6141b182613e57565b810181811067ffffffffffffffff821117156141d0576141cf614179565b5b80604052505050565b60006141e3613d42565b90506141ef82826141a8565b919050565b600067ffffffffffffffff82111561420f5761420e614179565b5b61421882613e57565b9050602081019050919050565b82818337600083830152505050565b6000614247614242846141f4565b6141d9565b90508281526020810184848401111561426357614262614174565b5b61426e848285614225565b509392505050565b600082601f83011261428b5761428a61416f565b5b813561429b848260208601614234565b91505092915050565b600080600080608085870312156142be576142bd613d4c565b5b60006142cc87828801613f99565b94505060206142dd87828801613f99565b93505060406142ee87828801613ee4565b925050606085013567ffffffffffffffff81111561430f5761430e613d51565b5b61431b87828801614276565b91505092959194509250565b600060ff82169050919050565b61433d81614327565b811461434857600080fd5b50565b60008135905061435a81614334565b92915050565b6143698161406b565b811461437457600080fd5b50565b60008135905061438681614360565b92915050565b60008060008060008060c087890312156143a9576143a8613d4c565b5b60006143b789828a01613f99565b96505060206143c889828a01613ee4565b95505060406143d989828a01613ee4565b94505060606143ea89828a0161434b565b93505060806143fb89828a01614377565b92505060a061440c89828a01614377565b9150509295509295509295565b600067ffffffffffffffff82111561443457614433614179565b5b61443d82613e57565b9050602081019050919050565b600061445d61445884614419565b6141d9565b90508281526020810184848401111561447957614478614174565b5b614484848285614225565b509392505050565b600082601f8301126144a1576144a061416f565b5b81356144b184826020860161444a565b91505092915050565b600080604083850312156144d1576144d0613d4c565b5b60006144df85828601613f99565b925050602083013567ffffffffffffffff811115614500576144ff613d51565b5b61450c8582860161448c565b9150509250929050565b6000806040838503121561452d5761452c613d4c565b5b600061453b85828601613f99565b925050602061454c85828601613f99565b9150509250929050565b7f4e487b7100000000000000000000000000000000000000000000000000000000600052602260045260246000fd5b6000600282049050600182168061459d57607f821691505b6020821081036145b0576145af614556565b5b50919050565b7f4552433732313a20617070726f76616c20746f2063757272656e74206f776e6560008201527f7200000000000000000000000000000000000000000000000000000000000000602082015250565b6000614612602183613e1c565b915061461d826145b6565b604082019050919050565b6000602082019050818103600083015261464181614605565b9050919050565b7f4552433732313a20617070726f76652063616c6c6572206973206e6f7420746f60008201527f6b656e206f776e6572206e6f7220617070726f76656420666f7220616c6c0000602082015250565b60006146a4603e83613e1c565b91506146af82614648565b604082019050919050565b600060208201905081810360008301526146d381614697565b9050919050565b7f4552433732313a2063616c6c6572206973206e6f7420746f6b656e206f776e6560008201527f72206e6f7220617070726f766564000000000000000000000000000000000000602082015250565b6000614736602e83613e1c565b9150614741826146da565b604082019050919050565b6000602082019050818103600083015261476581614729565b9050919050565b7f4e487b7100000000000000000000000000000000000000000000000000000000600052601160045260246000fd5b60006147a682613ec3565b91506147b183613ec3565b92508282039050818111156147c9576147c861476c565b5b92915050565b7f455243373231456e756d657261626c653a206f776e657220696e646578206f7560008201527f74206f6620626f756e6473000000000000000000000000000000000000000000602082015250565b600061482b602b83613e1c565b9150614836826147cf565b604082019050919050565b6000602082019050818103600083015261485a8161481e565b9050919050565b7f455243373231456e756d657261626c653a20676c6f62616c20696e646578206f60008201527f7574206f6620626f756e64730000000000000000000000000000000000000000602082015250565b60006148bd602c83613e1c565b91506148c882614861565b604082019050919050565b600060208201905081810360008301526148ec816148b0565b9050919050565b7f4e487b7100000000000000000000000000000000000000000000000000000000600052603260045260246000fd5b7f4552433732313a20696e76616c696420746f6b656e2049440000000000000000600082015250565b6000614958601883613e1c565b915061496382614922565b602082019050919050565b600060208201905081810360008301526149878161494b565b9050919050565b7f4552433732313a2061646472657373207a65726f206973206e6f74206120766160008201527f6c6964206f776e65720000000000000000000000000000000000000000000000602082015250565b60006149ea602983613e1c565b91506149f58261498e565b604082019050919050565b60006020820190508181036000830152614a19816149dd565b9050919050565b7f566f7465733a20626c6f636b206e6f7420796574206d696e6564000000000000600082015250565b6000614a56601a83613e1c565b9150614a6182614a20565b602082019050919050565b60006020820190508181036000830152614a8581614a49565b9050919050565b6000614a9782613ec3565b9150614aa283613ec3565b9250828201905080821115614aba57614ab961476c565b5b92915050565b6000614acb826140cc565b9150614ad6836140cc565b925082820190507fffffffffffffffffffffffffffffffffffffffffffffffff80000000000000008112677fffffffffffffff82131715614b1a57614b1961476c565b5b92915050565b7f566f7465733a207369676e617475726520657870697265640000000000000000600082015250565b6000614b56601883613e1c565b9150614b6182614b20565b602082019050919050565b60006020820190508181036000830152614b8581614b49565b9050919050565b6000608082019050614ba16000830187614075565b614bae6020830186613f58565b614bbb6040830185613fee565b614bc86060830184613fee565b95945050505050565b7f566f7465733a20696e76616c6964206e6f6e6365000000000000000000000000600082015250565b6000614c07601483613e1c565b9150614c1282614bd1565b602082019050919050565b60006020820190508181036000830152614c3681614bfa565b9050919050565b7f4f776e61626c653a206e6577206f776e657220697320746865207a65726f206160008201527f6464726573730000000000000000000000000000000000000000000000000000602082015250565b6000614c99602683613e1c565b9150614ca482614c3d565b604082019050919050565b60006020820190508181036000830152614cc881614c8c565b9050919050565b7f4552433732313a207472616e736665722066726f6d20696e636f72726563742060008201527f6f776e6572000000000000000000000000000000000000000000000000000000602082015250565b6000614d2b602583613e1c565b9150614d3682614ccf565b604082019050919050565b60006020820190508181036000830152614d5a81614d1e565b9050919050565b7f4552433732313a207472616e7366657220746f20746865207a65726f2061646460008201527f7265737300000000000000000000000000000000000000000000000000000000602082015250565b6000614dbd602483613e1c565b9150614dc882614d61565b604082019050919050565b60006020820190508181036000830152614dec81614db0565b9050919050565b7f436865636b706f696e74733a20626c6f636b206e6f7420796574206d696e6564600082015250565b6000614e29602083613e1c565b9150614e3482614df3565b602082019050919050565b60006020820190508181036000830152614e5881614e1c565b9050919050565b7f4f776e61626c653a2063616c6c6572206973206e6f7420746865206f776e6572600082015250565b6000614e95602083613e1c565b9150614ea082614e5f565b602082019050919050565b60006020820190508181036000830152614ec481614e88565b9050919050565b7f4552433732313a20617070726f766520746f2063616c6c657200000000000000600082015250565b6000614f01601983613e1c565b9150614f0c82614ecb565b602082019050919050565b60006020820190508181036000830152614f3081614ef4565b9050919050565b7f4552433732313a207472616e7366657220746f206e6f6e20455243373231526560008201527f63656976657220696d706c656d656e7465720000000000000000000000000000602082015250565b6000614f93603283613e1c565b9150614f9e82614f37565b604082019050919050565b60006020820190508181036000830152614fc281614f86565b9050919050565b600081905092915050565b6000614fdf82613e11565b614fe98185614fc9565b9350614ff9818560208601613e2d565b80840191505092915050565b60006150118285614fd4565b915061501d8284614fd4565b91508190509392505050565b7f45524337323155524953746f726167653a2055524920736574206f66206e6f6e60008201527f6578697374656e7420746f6b656e000000000000000000000000000000000000602082015250565b6000615085602e83613e1c565b915061509082615029565b604082019050919050565b600060208201905081810360008301526150b481615078565b9050919050565b60008190508160005260206000209050919050565b60006020601f8301049050919050565b600082821b905092915050565b60006008830261511d7fffffffffffffffffffffffffffffffffffffffffffffffffffffffffffffffff826150e0565b61512786836150e0565b95508019841693508086168417925050509392505050565b6000819050919050565b600061516461515f61515a84613ec3565b61513f565b613ec3565b9050919050565b6000819050919050565b61517e83615149565b61519261518a8261516b565b8484546150ed565b825550505050565b600090565b6151a761519a565b6151b2818484615175565b505050565b5b818110156151d6576151cb60008261519f565b6001810190506151b8565b5050565b601f82111561521b576151ec816150bb565b6151f5846150d0565b81016020851015615204578190505b615218615210856150d0565b8301826151b7565b50505b505050565b600082821c905092915050565b600061523e60001984600802615220565b1980831691505092915050565b6000615257838361522d565b9150826002028217905092915050565b61527082613e11565b67ffffffffffffffff81111561528957615288614179565b5b6152938254614585565b61529e8282856151da565b600060209050601f8311600181146152d157600084156152bf578287015190505b6152c9858261524b565b865550615331565b601f1984166152df866150bb565b60005b82811015615307578489015182556001820191506020850194506020810190506152e2565b868310156153245784890151615320601f89168261522d565b8355505b6001600288020188555050505b505050505050565b600060a08201905061534e6000830188614075565b61535b6020830187614075565b6153686040830186614075565b6153756060830185613fee565b6153826080830184613f58565b9695505050505050565b7f4e487b7100000000000000000000000000000000000000000000000000000000600052601260045260246000fd5b60006153c682613ec3565b91506153d183613ec3565b9250826153e1576153e061538c565b5b828204905092915050565b7f5061757361626c653a206e6f7420706175736564000000000000000000000000600082015250565b6000615422601483613e1c565b915061542d826153ec565b602082019050919050565b6000602082019050818103600083015261545181615415565b9050919050565b600060408201905061546d6000830185613fee565b61547a6020830184613fee565b9392505050565b7f5061757361626c653a2070617573656400000000000000000000000000000000600082015250565b60006154b7601083613e1c565b91506154c282615481565b602082019050919050565b600060208201905081810360008301526154e6816154aa565b9050919050565b600081519050919050565b600082825260208201905092915050565b6000615514826154ed565b61551e81856154f8565b935061552e818560208601613e2d565b61553781613e57565b840191505092915050565b60006080820190506155576000830187613f58565b6155646020830186613f58565b6155716040830185613fee565b81810360608301526155838184615509565b905095945050505050565b60008151905061559d81613d82565b92915050565b6000602082840312156155b9576155b8613d4c565b5b60006155c78482850161558e565b91505092915050565b7f1901000000000000000000000000000000000000000000000000000000000000600082015250565b6000615606600283614fc9565b9150615611826155d0565b600282019050919050565b6000819050919050565b6156376156328261406b565b61561c565b82525050565b6000615648826155f9565b91506156548285615626565b6020820191506156648284615626565b6020820191508190509392505050565b61567d81614327565b82525050565b60006080820190506156986000830187614075565b6156a56020830186615674565b6156b26040830185614075565b6156bf6060830184614075565b95945050505050565b7f4e487b7100000000000000000000000000000000000000000000000000000000600052602160045260246000fd5b7f45434453413a20696e76616c6964207369676e61747572650000000000000000600082015250565b600061572d601883613e1c565b9150615738826156f7565b602082019050919050565b6000602082019050818103600083015261575c81615720565b9050919050565b7f45434453413a20696e76616c6964207369676e6174757265206c656e67746800600082015250565b6000615799601f83613e1c565b91506157a482615763565b602082019050919050565b600060208201905081810360008301526157c88161578c565b9050919050565b7f45434453413a20696e76616c6964207369676e6174757265202773272076616c60008201527f7565000000000000000000000000000000000000000000000000000000000000602082015250565b600061582b602283613e1c565b9150615836826157cf565b604082019050919050565b6000602082019050818103600083015261585a8161581e565b9050919050565b7f45434453413a20696e76616c6964207369676e6174757265202776272076616c60008201527f7565000000000000000000000000000000000000000000000000000000000000602082015250565b60006158bd602283613e1c565b91506158c882615861565b604082019050919050565b600060208201905081810360008301526158ec816158b0565b9050919050565b60006158fe82613ec3565b91507fffffffffffffffffffffffffffffffffffffffffffffffffffffffffffffffff82036159305761592f61476c565b5b600182019050919050565b600061594682613ec3565b915061595183613ec3565b9250826159615761596061538c565b5b828206905092915050565b7f4552433732313a206d696e7420746f20746865207a65726f2061646472657373600082015250565b60006159a2602083613e1c565b91506159ad8261596c565b602082019050919050565b600060208201905081810360008301526159d181615995565b9050919050565b7f4552433732313a20746f6b656e20616c7265616479206d696e74656400000000600082015250565b6000615a0e601c83613e1c565b9150615a19826159d8565b602082019050919050565b60006020820190508181036000830152615a3d81615a01565b9050919050565b7f4e487b7100000000000000000000000000000000000000000000000000000000600052603160045260246000fd5b7f53616665436173743a2076616c756520646f65736e27742066697420696e203260008201527f3234206269747300000000000000000000000000000000000000000000000000602082015250565b6000615acf602783613e1c565b9150615ada82615a73565b604082019050919050565b60006020820190508181036000830152615afe81615ac2565b9050919050565b7f53616665436173743a2076616c756520646f65736e27742066697420696e203360008201527f3220626974730000000000000000000000000000000000000000000000000000602082015250565b6000615b61602683613e1c565b9150615b6c82615b05565b604082019050919050565b60006020820190508181036000830152615b9081615b54565b905091905056fea264697066735822122039766d8a2b19e8aebabd19b450f595df3239ae4ea88d2f3771872cb41d51e61f64736f6c63430008110033",
  "linkReferences": {},
  "deployedLinkReferences": {}
}